:0200000407FCF7
:100000000051FC072501FC072D01FC074501FC07F9
:1000100000000000000000000000000000000000E0
:100020000000000000000000000000005D01FC076F
:1000300000000000000000005F01FC074313FC0704
:100040005910FC07F934FC07A526F0074513FC07F7
:100050007112FC076301FC071D10FC076301FC071C
:100060002910FC076301FC070111FC070B11FC07B9
:100070001511FC071F11FC072911FC076301FC0780
:10008000AD13FC076301FC076301FC076301FC0778
:100090006301FC076301FC076301FC076301FC07C4
:0800A00000008E070E000000B5
:0200000407FCF7
:100110000348854600F070FF004800476122FC0755
:100120000051FC070F4880470F48004704207146E4
:10013000084203D0EFF309800C490847EFF3088029
:100140000A49084704207146084203D0EFF30980AA
:1001500007490847EFF3088005490847FEE7FEE72F
:10016000FEE7FEE73D39FC071101FC078112FC07A1
:10017000E911FC07F8B5074601200023024600906C
:100180001946032049F73EF90446022180300170E8
:10019000FF4DFE482A6843881146FF31F7310B8630
:1001A00080884886FB48066A0123DB069E431E437F
:1001B0000662FF320020FF32383250829082D082B5
:1001C0001D200882F4484884F448C882F448088313
:1001D00000204882384649F755FC01462868FF3020
:1001E000F730C28B920992010A43C283ED484168FD
:1001F00000208847002C02D0204648F7ECFC20461F
:10020000F8BDFFB58BB0064616980027022821D00E
:100210000D9801881498814278D371880846403837
:100220003F2802D8159855F7E9FC0C98361D008830
:10023000149A80190E995EF75FFF0C980188149844
:1002400008180C9908800D9801881498081A0D99BF
:1002500008805CE100200E9D079069782C780902E7
:1002600021433180E978AC780902214371808C46C2
:10027000403904242D1D024603468E46402900D3F2
:100280002878614604291FD0052914D0062918D0E2
:1002900070463F283DD8159855F7B0FC0006000E73
:1002A00004D0C148008D0006C00F30D002230120C9
:1002B000BE4A002712E0697800290FD0BC4A1723F4
:1002C0000CE0BC4A0F2309E0522802D0D22802D009
:1002D00002E0142000E01520B74A1F23002A1AD09C
:1002E000984218D2800010580490002813D00020A3
:1002F0000890059070884038402803D3287805245A
:1003000030716D1C701D00900498B5E0FEE0302740
:10031000F0E03327EEE07088042872D10627E9E088
:10032000522862D00CDC4B283FD004DC41286AD034
:10033000422858D111E04C2820D0502853D140E019
:10034000632830D004DC572818D061284BD19BE0BB
:100350006C2864D0772846D109E00098297801708C
:100360000098641C401CA4B26D1C009081E00498AD
:10037000401C04900178089881427AD10098A41C0E
:10038000401C41084900881C009068782A780002C7
:10039000104308800599AD1CA4B2002969D00890CB
:1003A0000020059065E00120FBE710222946009817
:1003B0005EF7A2FE009810341030A4B21035009001
:1003C00057E0204640301499039088420BD84022D1
:1003D000294600985EF790FE009840300090039800
:1003E000403584B245E0342743E00822294600988E
:1003F0005EF782FE009808340830A4B208350090F9
:1004000037E068E0FFE70622294600985EF774FEB1
:100410000098A41D801DA4B2AD1D009029E0149881
:10042000001B80B203903088001B001D81B20120A8
:1004300007900498401C04900098401C400840001D
:1004400000900498007857281CD04228CBD10098FF
:100450000170090A417000982946801C0090039A97
:100460005EF74AFE03980399201884B2009840185A
:1004700000900498401C0490007800281ED0002FA3
:1004800017D01BE04908E2E71498001B81B20098DE
:100490000391401C40084000009001200A4607904C
:1004A000294600985EF728FE0399601884B20098E8
:1004B000DDE70D990988A14200D331E70D98008846
:1004C000A04208D304990978002904D1079900298A
:1004D00003D1A04201D034270CE00D99001B088005
:1004E0000C9801880098801B001F08180C99002F99
:1004F00008800CD07088042809D0062807D040381E
:10050000402804D30E984079707100E034273846B3
:100510000FB0F0BDFFB581B01F4616460C46104621
:100520005CF7AEFC00257F2802D02189062909D07E
:100530003B4632462146019855F7F3FE05462846CC
:1005400005B0F0BDC00601D50225F8E720780028E7
:10055000F5D1300AA11D42F77CF8F0E7F1B598B06B
:10056000189842F774FA0446189805210079134A3E
:100570004006C00F099068460184618B08460A381E
:10058000904276D2E08A062873D319E030BCFC078B
:100590004CB9FC07C0000040108000002941000059
:1005A0007671000058BFFC0748BEFC073803F2070D
:1005B0004003F2079C03F207D803F207770C000010
:1005C0001922D201904254D8228BFF23F5339A424C
:1005D0004FD8521C9300D2184243521C0A23521087
:1005E00059438A4245DC217F00290CD1617F0029D3
:1005F00009D1A17F002906D1E17F002903D1202163
:10060000095DC90635D0274620377978C906C90E55
:10061000491F0C292DD2A18A81422AD8E17C0029C8
:1006200027D0421E082A01D9082000E0401E81423E
:100630001FD8684646F7CCFA00281AD1FE4D06228C
:10064000286221460AA85EF757FDA8792E46803E0B
:1006500000287DD06079800901280BD00AA809996B
:100660004CF785FD010003D03820405C002870D095
:100670009BE008E1F06A807A012808D0042806D0BF
:100680000AA84CF7E1FD286200284ED054E0686AC1
:1006900006220AA932305EF753FD002806D00AA8C8
:1006A0004CF7D2FD2862002802D012E0686AF9E710
:1006B00000210AA84CF7DEFD2862F16A897A012937
:1006C00005D18B071A6849068A430A431A60002835
:1006D00011D0F16A286A0622253010315EF730FD0C
:1006E000002808D1286AF16A2030C07AC97B884284
:1006F00001D1286A1EE0D148D1490088C96880B27A
:1007000006225043081842F7A7F9014614A806220A
:1007100002305EF7F1FC13AA00213C2042F769FC8D
:100720000121B06D47F790FEA9E011A90AA84CF786
:10073000A1FD2862002838D00146253106220FA8E5
:100740005EF7DAFC286A08AA2030C17A0FA801E017
:1007500041E024E04CF7EEFB002812D0286A20305C
:10076000C07A002809D16846B649008C4BF755FB82
:1007700008AA0121B3484CF7DDFB68460AA9008CA2
:100780000AE008AA012111A84CF7D4FB00280CD0DC
:10079000296A6846008C32314BF755FB05E00A1890
:1007A000527D002A08D010286DDBF06A407A0228BA
:1007B00006D0032804D00EE0401C1028EFDBF4E73D
:1007C0006846008C052806D308AA0AA809994CF7A0
:1007D000B1FB002857D00022694620464CF753FC55
:1007E000002850D1F06A407A02280BD0032809D0A3
:1007F0000023684602880AA809994CF765FC00287E
:1008000002D02FE00123F4E7E18A68460181218BC1
:100810004181618B81817878062241096846817522
:100820007878C106C90E6846417521460E305EF7DC
:1008300063FC189800794006C10F6846017503886B
:10084000214602A8B26D47F7A5F90146B06502A896
:1008500042F71DFC0020B065214668461C31008827
:1008600046F709FA49F788FA734C2034207A0028B1
:1008700005D0002109205CF746FC002020720021F1
:1008800008465CF7E8FA19B0F0BDF8B56E4C0646BC
:1008900085000F4660594C21095C24290ED140691E
:1008A0001022791D2E305EF727FC6159252040313A
:1008B000087300221146304654F7F3FA60594C2170
:1008C000095C0C291FD140691022791D2E305EF77A
:1008D00013FC60595F214069095C09072DD401466A
:1008E0002E3110221E305EF72BFC00280CD06059F0
:1008F000092140300173304654F7F0FF01460022D1
:10090000304653F74DFEF8BD0421684601706A4633
:100910000521304653F7EEFF684601786020014319
:1009200068460170304654F7D9FF014668460278A0
:100930000123304653F749FFF8BD304654F7CEFF48
:10094000012809D060590721403001730022114667
:10095000304654F7A6FAF8BD615900204969C03104
:10096000887160590421426930461E3253F7C2FF34
:10097000605941694031897F002907D01A214030F0
:1009800001730021304654F716FBF8BD1B2140309F
:100990000173304654F764FBF8BDF8B52A4C0546A0
:1009A0008600A0594C22125C192A11D140224D30E8
:1009B000491D5EF7A1FBA059402224494D305EF746
:1009C000BFFB002805D02149284620395BF723FDCD
:1009D000F8BD0B21684601706A460521284653F789
:1009E00089FF684601786020014368460170284607
:1009F00054F774FF0146684602780123284653F7EE
:100A0000E4FEF8BDFFB581B003980C46060A002548
:100A10005CF736FA002827D0132825D0142823D0D5
:100A20000B48B700C0592030407BC00637D503982B
:100A30005CF726FA15280DE030BCFC0768B9FC0706
:100A400060BBFC0750F5F1073CBEFC07FCBDFC0792
:100A500078BBFC070CD0A07941F7ECFF304647F794
:100A600087F8032806D015E0A07941F7E3FF1FE0DF
:100A700002251DE03248C0592030407B400704D594
:100A80003D21304642F7D4FC04E03D2200213046AF
:100A900042F7DDFC3D21304646F7B2F808E020463B
:100AA000103828490181468120464EF79BFD0125DB
:100AB000284645E524485222006864308188C37E78
:100AC0005143224A12688918FF225F32525AFF317D
:100AD000120AD21A01310B8CD2B2DB0B09D00B8C6B
:100AE0005B045B0C0B84002A03D18088184A012127
:100AF00011547047FFB51746140A81B0104A029886
:100B0000A100515840780026114D002907D0295DD9
:100B1000002905D0002803D1204643F7EDFE2E55CD
:100B20003A46049B0299019844F777FE08E50A4883
:100B300008490160094941607047704770470000EB
:100B400078BBFC070608000084BBFC074CB9FC0717
:100B5000C08BFC070459F007C0000840490C00BFD7
:100B60007FB5E4486B460188428889186A4611803F
:100B700001214C0022181546403DED8F065B52883E
:100B8000AD19AA18491CC9B21A530729F1D3818992
:100B9000C089081881B2D981D888002821D0188945
:100BA000002820D0988800281FD0588900281ED0FF
:100BB000988900281DD0588800281CD000291CD0F6
:100BC000188800280BD00720062254001C5B8C429A
:100BD00001D22146D0B2521E52B2002AF5DA04B038
:100BE00070BD0320FBE70420F9E70220F7E70520AA
:100BF000F5E70620F3E70120F1E70720EFE7F0B57E
:100C000095B0EFF310801090012080F31088BA485F
:100C1000816B4A07520F69460A800A92816B012252
:100C2000C908C9008163B5498B8869464B80022495
:100C3000B24B00219980C16A09078B0F69468B80EE
:100C40000F93C16A0C2399430831C162052109073A
:100C500009880906CB0F6946CB800521090709934E
:100C600009888023194305231B071980A449898A11
:100C70004906CB0F69460B81A1490893898A402315
:100C800019439F4B9982016A09074B0F69464B81B3
:100C90000C93036A0E218B4303629B4D9948686055
:100CA000FF204030A8602888A043288097484168EA
:100CB0000B071B0F69468B810B93416809090901DA
:100CC00008314160416849064B0F6946CB810D935D
:100CD000416870239943603141608748403801681A
:100CE0008904CB0F69460B820293036841140B43BE
:100CF00003600168CB07DB0F69464B820E930168E6
:100D00001143016041688903CA0D69468A820392D2
:100D10004168CA05D20D6946CA8204928168890376
:100D2000CA0D69460A8301928168CA05D20D6946D7
:100D30004A8305924168764A11400322D2038918FA
:100D400041604168490A4902FF314131416081688F
:100D50006F4A11400322D203891881608168490AD1
:100D60004902FF3141318160642000F02DF9A889EA
:100D700069468007C00F8883A8892043A881002482
:100D8000604F288800260121084328800A2000F0AF
:100D90001BF9FF205F4941303A680A4200D0761CB7
:100DA000401E3F1D0004000CF6D1A88A8004FCD12F
:100DB0005149886B671CC208D2007807400F024374
:100DC0008A630A2000F000F960004A49FCB20E5222
:100DD000082CD5D348480A99826BD208D2000A431E
:100DE00082636946454A498891800F998A00C16AA1
:100DF0000C2399431143C1620999CA0105210907CE
:100E0000098880239943114305221207118008990C
:100E10008A013B49898A402399431143384A918288
:100E20000C994A00016A0E23994311430162374825
:100E30000B994268120912010A4342600D994268F7
:100E4000090170239A430A434260029841032A48E9
:100E50004038006801225203904308432649403934
:100E600008600E9809684908490001432248403843
:100E700001600398420220484038406824490840F5
:100E800010431D4A403A506004985268520A520278
:100E900002431948403842600198174A4002403ADC
:100EA00092680A400243144840388260124905980B
:100EB00040398968490A490201430F484038816036
:100EC0001098002800D0012080F3108815B0F0BDE4
:100ED00010B5114C2078002808D0FFF790FEFFF7DE
:100EE0003FFE0E4908700020207010BD02F0FCF893
:100EF0000120F9E7A049FC078010004000120040E3
:100F000020300050A044FC07003500504020004035
:100F1000FF01FCFFC0C0C0C04B8DFC074A8DFC0721
:100F200010B5FF22154901320A60BFF34F8FBFF39E
:100F30006F8F13490A6013490B6840241B0A1B0278
:100F400023430B601049898A0021C30700D0352153
:100F5000830702D57D231B021943430702D575235E
:100F60001B041943000702D53D2000060143064833
:100F70002038016301488038026010BD80E100E044
:100F800080E200E008E400E0A010004010B5062078
:100F900000F01AF810BD10B5092000F015F810BDCA
:100FA00010B5812000F010F810BD10B5044800F015
:100FB0000BF810BD10B5034800F006F810BD000096
:100FC000010200000108000000280CD000BF00BF93
:100FD00000BF00BF00BF00BF00BF00BF00BF00BF19
:100FE00000BF401EF0D17047421C0178401C002910
:100FF000FBD1801A70470000064C0125064E05E023
:10100000E36807CC2B430C3C98471034B442F7D329
:10101000FFF782F87C44FC079C44FC07014801214F
:10102000018070470E1500500A48011F0988CA0741
:1010300006D0028807239A43DB4B9B781343038037
:10104000490706D5018807229143D74A12790A43F6
:1010500002807047B810004010B5052000070188D5
:10106000302211430180038803210B430380204B6E
:101070001C886407FCD403889343038003888B4354
:101080000380C94BDC8944801B8A9C1E194B5C8001
:1010900007241C8004881443048004880C430480C3
:1010A0001C886407FCD403889343038002888A4326
:1010B00002804289920702D042898A434281018993
:1010C00080220A430281018A042291430182818A9B
:1010D0008907FCD541F725F9074800210160074839
:1010E0000168490700D500BE01684907FCD510BD5D
:1010F0000833005000160050080200401000004065
:1011000080B50A2000F04EF880BD80B50B2000F0BD
:1011100049F880BD80B50C2000F044F880BD80B552
:101120000D2000F03FF880BD80B50E2000F03AF8A9
:1011300080BD0000FEB50193009202910546012793
:10114000002138462A465EF71BF8E34A536B0B40F2
:10115000166B06401E4300D100BE536B0B40166B4E
:101160000640019C002C06D01E4300D100BEAF40BB
:101170000B4E378005E01E4300D100BEAF40084E45
:101180007780536B0B40116B0140194300D100BEB7
:10119000029800990143680030188180FEBDC04666
:1011A0000230005070B5C0B203460A3B01210A4626
:1011B0009A4093B20A4C1C195C406608094B1C8883
:1011C0000025360402D06D1C760CFAE79443AAB2CF
:1011D0000D46954025431D8081405248016070BDF9
:1011E000FFFF01000E140050F8B5044601273E022F
:1011F00005200507688DC00506D51B2002F0FCFA06
:101200004A480188394301808036288840013040AF
:10121000698A474A0A4002436A822168134801608A
:1012200061684160A1688160E168C1602169016114
:1012300061694161A1698161E169C16104623E49FD
:101240000A6842624A6882628A68C2624A690263C4
:10125000CA68426309698163334808210180A88A0A
:10126000C00600D4FEE700BEF8BDC0460090FC07F3
:10127000024800882B481021016070472C13005051
:10128000F8B5044605200507288A04210143298270
:1012900028894021014329812248012707602248EB
:1012A000082101803E02688DC00506D51B2002F092
:1012B000A3FA1E48018839430180803628884001FE
:1012C0003040698A1A4A0A4002436A8221681948F2
:1012D000016061684160A1688160E168C160216965
:1012E000016161694161A1698161E169C161046272
:1012F00011490A6842624A6882628A68C2624A691F
:101300000263CA68426309698163A88AC00600D47F
:10131000FEE700BE688A094908404018001D68823F
:10132000F8BDC04680E200E000330050800000506D
:101330007FFE00005090FC0728ED00E0FC7F0000DD
:1013400070477047B0B5174C634DA1880F20084017
:10135000022806D0042810D00C2811D00128F4D17E
:101360001FE02889A98981420FD2A088C0210140AD
:101370002046C02912D0103011E002F059FAE4E7FB
:1013800002F056FA2088012105E0208802218843D6
:1013900020802088802188432080D6E7783000880C
:1013A000D3E7B0BD04110050488DFC0705210807A4
:1013B000028830239A430280028803239A430280E2
:1013C000828812050DD5184A13880B40052B08D1C9
:1013D0001088042101431180108801218843108066
:1013E00070478188C90606D510498A88D20702D07D
:1013F0000A88120610D48088C0060CD50B48818854
:10140000890708D50188C90505D502218180018891
:10141000074A0A400280704701208880088880229D
:10142000904308807047C046000200500001005001
:10143000FFFE000070B53848092104241823224615
:101440005BF7D8FA05461B202870FD26304662F768
:1014500023F90021A982E96029616C606E806870BF
:1014600028465BF7E2FA70BD1FB5144600220292CF
:101470000192069A00921A46234661F739FF04B09A
:1014800010BD0000B0B5144882791449D4B20C23C1
:101490006343CD5CFF2D0AD0012C02D10222827160
:1014A000F4E7521C8271C818406880470EE0C17989
:1014B0000B4ACCB21C236343D45CFF2C08D0491CDC
:1014C000C171D318DB68002BF3D098470020B0BD62
:1014D0000021C1800120B0BD488DFC073C40FC07C5
:1014E000D03BFC0770B50C48092104240A2322468E
:1014F0005BF780FA05461B2028701426304662F7F9
:10150000CBF8FF21743129816C606E8068702846A9
:101510005BF78BFA70BDC0461B0D00001FB514466B
:1015200001220292044A0192069A00921A46234628
:1015300061F7DEFE04B010BD8C3AFC0770B5124DA9
:101540002C68002C19D11148092104222C235BF7A7
:1015500051FA04462860172020840D482080002678
:10156000668020460A3011215DF7DFFD2685E6847E
:101570006684E683A6832020E07620465BF755FA52
:101580000020286070BDC046648CFC07040D00007C
:10159000030A000010B5154C206800281CD114481F
:1015A0000921042252235BF725FA02462B20002151
:1015B0001154226091720F48D08090800D201080CD
:1015C000D172FF200830108110460B300C320B21F5
:1015D000094B61F79FFF20685BF727FA0020206026
:1015E000042002215BF737FC10BDC046608CFC076D
:1015F0000D0D00004C040000DC43FC07F8B5009220
:101600000D468100104A56585418002E0AD1010286
:101610000A310E4804271E233A465BF7EBF90646CB
:1016200007702060B71C102138465DF77EFD3846F4
:101630002946009A5DF760FD0120707030465BF727
:10164000F4F900202060F8BD988CFC07140E00000F
:101650001FB514460E220292044A0192069A009285
:101660001A46234661F744FE04B010BD943AFC07C5
:1016700010B5014601200A4A914210D3121D914231
:101680000DD8029CF231C8B28100064A5058002899
:1016900003D0511800220A6080470020207010BD3E
:1016A0000E040000808CFC071FB51446072202922E
:1016B000044A0192069A00921A46234661F718FEE0
:1016C00004B010BD203BFC0770B50C464C49884265
:1016D0001ED04C4A90422CD04B49884247D12078AA
:1016E000401E09285ED88000494A11584E4B994245
:1016F0005CD04848814200D07CE042480421082365
:101700000A465BF777F921780170616841606FE004
:101710006268002A01D100BE62683C48824201D35F
:1017200000BE626820783749401804215BF7A1FCAD
:1017300060E02578681E092836D8800034490B58A7
:10174000344EB34256D10818816A01606468324849
:10175000018809062FD53149096809042BD430497D
:101760000988C90727D1A81804212246DEE7531C9F
:101770000121984241D30A3290423ED8C01EC0B2E5
:10178000411E8A00224B9958002933D0214CA14296
:1017900030D0254CA1422DD09A18002313609362BB
:1017A000884727E000BE25E000BE23E01018002196
:1017B000016081621EE0EFF31083012181F3108844
:1017C0000088000603D4174806880E430680002BC5
:1017D00002D081F3108802E0002080F31088901E70
:1017E00080B2042108230A465BF704F944600570BF
:1017F0005BF71BF9049800210170084670BDC046D4
:10180000010400000304000002040000FDFF3F008B
:10181000B08DFC072F38FC07080000503000004056
:1018200054BAFC07083300502D38FC07B0B50C46FD
:101830000025202D04D041F762F860556D1CF8E7B3
:101840000020B0BD10B504460548064970225DF77A
:1018500053FC0548001B054908801430488010BD22
:1018600070A0FC07583BFC07B8A0FFFF78A0FC075E
:1018700010B507480188074A1368074C23405918D8
:1018800011604088516821400818506010BDC04662
:101890003830004098A0FC070000FFFF07481E21D9
:1018A0004180018803220A430280018804220A43FE
:1018B00002808648012101707047C0460016005022
:1018C0007047000070B514460D4610465BF7D8FA15
:1018D00001282FD1287801020831AA791648002A58
:1018E0000CD089B2062322465BF784F80646A87816
:1018F00060F79CFD3080A879307114E0AA8889B225
:10190000921D93B222465BF775F80646A87860F7F9
:101910008DFD002131713080A8887080701DAA88EB
:10192000E91D5DF7E9FB30465BF77FF800212046B3
:101930005BF791FA002070BD140C0000FD2801D067
:101940000020704700487047D03BFC077047704745
:1019500010B5044640793F280FD840F7D0FF2070DB
:10196000010EE170010CA170000A607040F7C7FF22
:101970002071000AC0210143617110BD80B5FFF7DD
:1019800009FE80BD6621514A515A01807047C04608
:1019900080B54422F6498A5C0270401C45315DF7EF
:1019A000ABFB80BD7D21C180002181801021418061
:1019B0000821018070470000FEB57A24029044435C
:1019C000EA4807194E783E773D46143508212846E7
:1019D0000A4661F7C5FC38461C300190102E04D829
:1019E000B81C1022314661F7BBFC40F788FFDF4B83
:1019F000195D01220A431A557882029E304600F092
:101A000015FC019909780177798A418269882A88C9
:101A1000EB88AC88048343838282C182B91C801C1A
:101A200010225DF769FB304600F000FC5AF7FDFF1D
:101A3000B000E949081800214162FEBD70B581007F
:101A40000D4A54585518002C10D101020A310B4888
:101A500004221E235AF7CEFF044601260670286092
:101A6000801C074907225DF747FB667020465AF73E
:101A7000DCFF0020286070BD948CFC07140E000071
:101A80007444FC0780B561F71BFD002801D0FFF707
:101A900081FD80BD10B50C46017801290CD00029CC
:101AA00010D142884421F24B5A544533011DD2B221
:101AB00018465DF721FB03E040886621F74A505243
:101AC000002000E04820207010BDC046488DFC0773
:101AD000F0B585B04A78032A15D8C0467A44127901
:101AE000520097440601010C0849019101A9042202
:101AF00007E007A201A90B46F0CAF0C300E0891C69
:101B00001022FFF77BFD05B0F0BDC04640E20100AA
:101B1000000102030405060708090A0B0C0D0E0F4D
:101B200000208880488001200870704780B55FF7EA
:101B300023FA80BDF8B56946C870020A8A70020CA3
:101B40004A70000E087008465FF7FEF98FBD00006E
:101B500080B5494800210160FFF722FA4448007827
:101B60001F214901414A13688B43C006800DC018EC
:101B7000106080BD80B53F4802210170FFF706FA72
:101B800080BDC046F8B51F460C460878082811D815
:101B90000725002100911AA6784400794000874467
:101BA00019040F040606121518001A4E12E00D252E
:101BB000174E0FE000BE002601200090354609E0D8
:101BC0000A2515A606E0082518A603E006250EA698
:101BD00000E014A6AB1C184839465AF70BFF07461D
:101BE000207838707D700098002804D1B81C3146E8
:101BF0002A465DF781FA38465AF717FF0020F8BDEC
:101C000052656E6573617300FFEEDDCCBBAA000008
:101C10007E43FC076A43FC07312E302E302E302DD8
:101C20004C45000001D2008005000100123456FF2F
:101C3000FE9ABCDE000000000314000080B50B48D3
:101C400001688905C90E0A4A11701F2149010268FD
:101C50008A43026007480121017007480168032296
:101C60000A430260FFF79CF980BDC0464C12004059
:101C70009C44FC0706100040AC10004070B50C7886
:101C8000A51E052D37D81C0A7D442D796D00AF4463
:101C90000221323543517A206043864A15188878EC
:101CA00078216854C0070DD071350C206043AC49D1
:101CB0000E1831463D31062228465DF71DFA3C20BC
:101CC000305CA8710C206043A5490818432100220C
:101CD000425449E07A20604376490818782100226E
:101CE00042540C2060439E49081843214254204628
:101CF00061F746FC38E001F0DBFD35E07A2565430D
:101D00006C4C60193A30891C17225DF7F5F9605D5B
:101D100004210143615527E07A256543654E70191A
:101D20006130891C102422465DF7E6F9705D20437E
:101D3000705519E07A2060435E4A14188B1C488A5B
:101D4000002808D020461E301C2219465DF7D4F921
:101D50002078022106E0A01C1C2219465DF7CCF970
:101D60002078012101432170002070BD9C8CFC076C
:101D7000488DFC0780B50A78072A24D8180A9200F3
:101D800001A39A589746C046A91DFC07C71DFC072A
:101D9000C71DFC07C71DFC07CB1DFC07D51DFC0795
:101DA000D51DFC07D11DFC077A214143414A002380
:101DB00053540C2141436A4A5118432201238B5446
:101DC000FFF73CFE06E000BE04E0FFF781FE01E005
:101DD000FFF7F2FD002080BD488DFC0710B50C78A0
:101DE000012C03D0092C09D04C7802E04C78432C0C
:101DF00002D0002C00D000BE01F05AFD002010BD22
:101E0000F8B51C4610460D465BF73AF802282CD16F
:101E1000240A00D000BE0C206043FA490F183A2073
:101E20003C54FF2C1DD03E46383601200090F07007
:101E3000042003215BF70FF828883887687A30710F
:101E40003D370A350622384629465DF755F97A208E
:101E50006043184908187821415C2046009A61F7D0
:101E600043FB204601F036FD00E000BE0020F8BD37
:101E7000488DFC0710B51C4610465BF701F8032897
:101E800009D1200A0C214143F3484018FF21418722
:101E9000FFF780FB00E000BE002010BD488DFC076E
:101EA000180A7A224243034880180978782281541C
:101EB000002070479C8CFC0700207047F0B58BB069
:101EC0001D46087802282AD0012837D0002842D1A0
:101ED00001924420E04F3E5C00211F2E029101D868
:101EE0002020811B03ACA01900945DF71EF9453733
:101EF0002046394632465DF7FFF833460A33174825
:101F00002946019A5AF776FD0446468002982070C9
:101F1000201D009932465DF7EFF8204619E00F4882
:101F20000A2329465AF766FD7D2101810021C180DF
:101F30001021818008214180022109E06620C649E4
:101F40000E5A06480A2329465AF754FD46800121B5
:101F500001705AF76AFD00200BB0F0BD0B0E0000B7
:101F6000488DFC070020704770B50C78172C14D8EA
:101F70000125A5400D4E354201D0002070BD012C39
:101F800006D0032C09D14878002809D000BEF4E718
:101F90004878002807D000BEEFE701F089FCECE7A5
:101FA000FFF770FDE9E7FFF7C9FAE6E700F08E00FA
:101FB00010B510465AF764FF002801D000BE09E0B2
:101FC000054809210422012423465AF713FD047011
:101FD0005AF72BFD002010BD020D000000207047B5
:101FE00000207047F0B589B0039316460C46FD20DB
:101FF0005FF7FEF80290002800D100BE08A9002774
:102000000F70208860F720FA05466088002800D00D
:1020100000BE002D78D1FD20FFF790FC002800D1F4
:1020200000BE0399090A009108A90A7814215143B6
:1020300043685D182D79022D24D159580988394BF0
:1020400099421FD1002005900490208860F797F9ED
:10205000002800D100BE07A9002204AB4EF784FF80
:102060000120400207990140480A214660F772F9B1
:10207000C5B2002D29D1E28808A80178009860F740
:1020800044FB22E001968669002E3D4606D0A588D5
:102090006188A31D10462A46B04705460597049758
:1020A000208804A94EF7DBFC002D019E0DD10820ED
:1020B0000499085E002807D46288A1882088A31D9F
:1020C0004EF737FD054600E00025002D1CD1029893
:1020D000009F39465FF7AAF80146A088801D83B2A9
:1020E000114832465AF786FC0546801DA288A11D7C
:1020F0005DF702F808A800786880A088A8802F7093
:1021000028465AF792FC00250848042303993246D2
:102110005AF770FC8570218801805AF786FC0020F0
:1021200009B0F0BD022900000AFD0000160C0000F5
:1021300070B5294EB06800F051F80546084C2146AC
:102140005CF760FF706107494143481901D0201ACC
:1021500080B23061306808210143316070BDC046F3
:10216000710200008FFDFFFFF8B5174800210160E4
:10217000642016490E5A384CA769304678432949DD
:10218000401829495CF73EFF054620821048007838
:10219000022801D00B2400E01C243C367743214860
:1021A000381821495CF72EFF2818001900F016F89E
:1021B0000849401880B25BF7B1F90120C007064911
:1021C0000A6882430A60F8BDA8B9FC07C48BFC0703
:1021D000B4BAFC07E20400003000004080B50246BB
:1021E000C00B09D01C48006A00210B465CF734FF85
:1021F0008905800A401880BD1748006A4243900A4A
:1022000080BDC046488DFC0780B5FFF7E7FF80BD65
:1022100080B51149896941430248081802495CF7B1
:10222000F1FE80BD20A1070040420F0010B501461D
:102230008000094A1418606A002800D010BD2434B8
:1022400009020A31054804221E235AF7D3FBFF2155
:1022500008310180206010BD488DFC07140E00007D
:1022600000B597B0F648C821059101800021418052
:10227000F448082303800A911491F34E149800281F
:1022800012DC00201690169A14990B2A09DC3022D1
:102290004A43B118169A920088501699491C169113
:1022A000F1E7481C1490E9E70993F3680A98C143E1
:1022B0000120002B024600D00A46D400F54D2F6BBA
:1022C00027436C6B2F631292570F002B0A4600D1E5
:1022D0001A46D200D21922436A633469002C03469D
:1022E00000D00B461F0F002C0A4600D122461201D7
:1022F000D2196C6B14432A6B6C631C0114432C635E
:102300007468002C00D00846C70F002C00D121466D
:102310004900C9196A6B0A43296B6A6342000A4380
:102320002A630A9969632963129AF26033617060C3
:1023300014911498002835DC0020169016980B286C
:102340002CDC169814990B2828D830201499414376
:102350007118169A92008958491C00D100BE149930
:1023600041437118169A92008958002913D0149984
:1023700048433018169989004058C117169A5CF7DF
:10238000FFFE149A12015CF7FBFE6A6B0A43296B8D
:102390006A63014329631698401CCEE71498401CD9
:1023A0001490C6E7BC4F388813AC20802088C04604
:1023B000C046208804211191C943084202D00A98DE
:1023C000388003E0B88901218843B881099BB88B24
:1023D000B249014007200E90C0020818B883B04EE1
:1023E000308818433080F08D06229043F085012418
:1023F000A003B98B0143B9833088AA4901403180D9
:1024000070880392104398437080052012903B46D9
:102410000707798DA44AFF32F08D104022020C92FA
:102420000F220F921203C90504921CD57D21C90009
:1024300018310843F085F08D9C490140E0030818ED
:10244000F085988B099908439883988B1199884354
:102450009883F08DA043F085988B402188431A46DD
:10246000988323461AE0032149020843F085F08D42
:102470001043F085988B099988439883988B0421A1
:1024800088431A4698837088894901407180F08D8D
:102490002043F0852346788D4007FCD51446908B69
:1024A000032110910843908331882022114340205A
:1024B0000890C04301403180218C114301402184A8
:1024C000F98A80220B9211430140F982398EFF2252
:1024D00091433986398F119C2143182202929143EE
:1024E0003987398FA0220A4302403A877148048015
:1024F000B88871490140B980180470490860EFF349
:10250000108483F31088788D0C9908420D9308D0BD
:102510006B7001F067F90D9B69490870F08D1840E8
:10252000487038880B9908433880664A10680E99BD
:102530008843114610600A9E48684007FCD53888D9
:10254000000600D400BE6048086160484861002C65
:1025500002D083F3108802E0002080F3108808681E
:102560000E99084014A908700878022820D0788DA8
:102570000C99084211D001F035F90A2802D80B2035
:1025800001F03AF9464AD08DC0070D9905D1D08D9A
:102590000843D085788D4007FCD54A4A106802214F
:1025A0000143129881431160114648684007FCD5E9
:1025B00047480068C1B20C20AA29014600D01199F1
:1025C0003A88824388183880C046C046414800682F
:1025D000414909886824414A1653A985A8620D9883
:1025E000C046C0463E4B181F00683E49884200D096
:1025F0004DE107940F9804070420002106910F94E1
:1026000006461918081F1A46EC32904200D343E1DF
:1026100000681690169B234009200407169AA342CF
:1026200076D1169B1C0AE3B21193D2B2921F112AE3
:1026300000D9F8E0920005A39A58294B9746C04666
:102640000031005002330050188DFC07E926FC07CA
:102650009527FC072928FC072928FC072928FC07BF
:102660002928FC072928FC072928FC072928FC071A
:102670002928FC072928FC07BF27FC07E527FC07BA
:102680000B28FC073528FC072928FC073F28FC07F6
:102690004728FC07488DFC0704030050FFC30000D7
:1026A00052000050FFBF000000F0FFFFFF0F0000CE
:1026B000FFF9000000020050FFF7000080E200E098
:1026C000B049FC070000F4070F009909090404A4AD
:1026D000D07FF807D47FF807D87FF807C48BFC07B2
:1026E000D47EF807A5A5A5A5B24A0798105CC0003E
:1026F0001018119A92005CF7FFFC0799AD4A505CE4
:1027000000195054C0B2052800D28CE000BE8AE007
:10271000900F10D01698A84988420CD8304608303F
:1027200039462831169A8A4228D1A44BF158A44A36
:1027300011800F9C64E716980F9C20400E990907A2
:10274000884203D10020C046C04605E016982040CC
:102750000D99C907884202D1301D984B50E7169851
:102760002040129949078842944B05D01698204082
:1027700010994907884279D1301D41E7B91C169A52
:102780008A4268D18D4C315966228A4B9952234630
:102790000F9C35E769220192864B985CC00018189F
:1027A0001030119A92005CF7A7FC0199814A505CA5
:1027B00000195054C0B20D2835D300BE33E0F15893
:1027C0004843F258120C801A00B2C008794B4033CB
:1027D000D88288B2101A81087A4A11400818401C21
:1027E000988220E0F1584843F258120C801A00B247
:1027F000C008704B4033588388B2101A8108714A60
:1028000011400818401C18830DE0069CA00014AA73
:102810001018119A92005CF76FFC11980419032CA0
:10282000069400D300BE654B119880003018001D3F
:102830000F9CE5E6F05862215E4A5052F4E7F058EA
:102840005C490865F0E7F05864215A4A5052000488
:10285000EAD100BEE8E739462431169A8A42574B3E
:102860000AD1F158564A51800F9CC9E61698401C6F
:1028700012D000BE3046C3E639462031169A8A424D
:102880000F9C00D0BCE6F1584D4A9180B8E6662016
:1028900048490B5A0D9A3AE0464C2046403014996C
:1028A00081830921159A5143130CC91A09B2C90829
:1028B000018491B2591A8A08F44B1A405118491CE4
:1028C000C183079AA05CC10701D000BEA05C40088C
:1028D000A0546920215CCA070A9E0D9A01D000BE4F
:1028E000215C490821546420215A002902D17D210C
:1028F000C90021526620235A002B08D1E1490968FA
:10290000C9B2AA290B9B00D06E23DF490B52119349
:10291000EB81B88C9043B8840D201446FEF754FB2D
:102920007889204302218843788178894006FCD544
:10293000119878807D20C000FEF746FB78891099B9
:102940008843788178890006FCD5CE488069C949DA
:102950008860EFF310840D9A82F3108838880B9901
:1029600008433880C44B18680E998843194618608C
:1029700048684007FCD5C1480861C14848613888AB
:102980000B9988433880788D0C9908420DD06E7071
:10299000B848007800F030FF0D9AB648407800281B
:1029A00003D1B349C88D9043C885002C0CD082F365
:1029B00010880CE0C48BFC074C420050D47EF80712
:1029C000A000FC07FF3F0000002080F31088B04803
:1029D0000068B049884200D0C0E0B148B1495CF716
:1029E000A4FB0E9E3102B0485CF79FFBFEF7A6F8F1
:1029F000AE48AF490160AF48AF4930220A925CF758
:102A00007BFBAE480024C471847144710471C470AE
:102A1000847044703F210F910170A948A9A1089AC0
:102A20005CF76AFBB7480470B748B8490160B8481A
:102A3000B8490160B848B9490160B9480A21017034
:102A4000B84811940470B84832210170B7481299FF
:102A50000160B7480D9C0460B6480160B648039910
:102A60000160B6480660B648099E06600C98801D55
:102A7000B4490860B4490860B4488949016000F06D
:102A8000B7F9234638890A998843388138890B99E0
:102A900008433881388930433881388CA0433884E2
:102AA0007889029988437881388908990843388160
:102AB000388A042188433882B88A8007FCD5049973
:102AC000FF31F88C08400B21129109020143F9846F
:102AD000F88C1843F8847889304310218843788132
:102AE000788C9843788438890899884338819E0780
:102AF00030680C9CA04330600F98410294480268F3
:102B00008A43590351180160590502680A4302605B
:102B10005F4909685F4A91423DD00F968B49096829
:102B20008160544A90689070010E5171010C1171CE
:102B3000000AD0702046C03058490A46002818D0F4
:102B4000401E435C16783746109C2740494CE719D5
:102B5000BF785F4077401770521CEFE74E484F49EF
:102B6000129A5202964200D937E732587250361DF7
:102B7000F6E74048103049491C2204465EF750FAF7
:102B8000002800D000BE20465EF7DEF940484149EB
:102B900001600C9C0F9E6D4800683FF75BFB6D4F1A
:102BA0002146119C3C71FC70306808433060FEF790
:102BB00075FE287801281AD1674801884907FCD496
:102BC0002C70C188808809040C181F2040064921F8
:102BD0002246119B60F744FC64214143080CA86124
:102BE0005E486043119C800B401C400828624420D2
:102BF000129A2A54FC705A4E3470AC63EC632C6405
:102C00002846453057495CF777FA44356C842546A9
:102C10000424554920465AF7ECF8204629465AF72D
:102C20001AF960F765FDFD703570FFF79DFA052014
:102C3000FEF776F90C48059901800C480999018046
:102C400000F0D6F849A04E4CA0474EA0A04752A095
:102C5000A0473124564D2046A8472046A847382093
:102C6000A8472046A847FEE7003100500233005035
:102C700052000050B049FC070000F4070F0099090A
:102C8000090404A4D07FF807C48BFC07FF3F0000B1
:102C90009CB8FC076587341200B0FC07008EFC0767
:102CA00000A0FC07AC14000000B9FC0760BAFC07E8
:102CB0001440FC0700BAFC077CFCF107DAB9FC07FA
:102CC000B0BCFC072000800000C0000000008400B1
:102CD00000002822000000000000040000F7FFFFB1
:102CE0007F00000030F0FF0F000000000004000033
:102CF00000000000000000000000000000000000D4
:102D000000000000FDB9FC0750B9FC07603FF20766
:102D100054B9FC079841FC0758B9FC078C40FC07E4
:102D2000B0B9FC07B1B9FC07D9B9FC075CB9FC071D
:102D300060B9FC0764B9FC0768B9FC076CB9FC070B
:102D400070B9FC0748B9FC0744B9FC074CB9FC074B
:102D50000002004054BAFC07001600501111010097
:102D6000B4BAFC07DC43FC077C3AFC070D0A202DB3
:102D70002D2D2D2D2D2D2D2D2D2D2D2D2D2D0000DD
:102D80006D38FC070D0A2049324320444131343567
:102D900033585F44535000000D0A202D2D2D2D2D4A
:102DA0002D2D2D2D2D2D2D2D2D2D0D0A000000004A
:102DB000A530FC0710B569210C48415C1030002299
:102DC0008A4204D218C81C600030521CF8E710BDBB
:102DD00010B568210548415C00228A4204D218C817
:102DE0001C600030521CF8E710BDC046C48BFC07C5
:102DF000F0B585B0624EF08CC005624D1AD56248C0
:102E00004078012803D100F0EDFC1B2812D85F4C5C
:102E10002088C00400D4A88AFF201C305C490880A8
:102E20001B2000F0E9FCE08D01210143E185F08CDD
:102E30004007FCD5574858A118225CF75DF95CA003
:102E40005E491CC81CC1FDF772FE5D485D4901600A
:102E50000325002101910A2201265B4C28463346B6
:102E6000A04702952D0204270922384629463346F9
:102E7000554CA04730462946019D04973A46404F9D
:102E80002B46514CA0473446EFF3108086F3108850
:102E900039884022039211433980002802D084F3FC
:102EA000108801E085F310882E46484A1088484B68
:102EB000998980200143998146490B250D8008217D
:102EC00019809E809D8985439D81029D9D8194836B
:102ED00016849684EFF3108284F310883D882023B3
:102EE0001D433D80002A02D084F3108801E086F360
:102EF0001088394A1588A54315801588ED07FCD13F
:102F0000364D2E864826AE824F262E83A983172162
:102F10002984298802260E4304998E432E801F217E
:102F2000C943AE8F0E40AE872E8F0E402E87298864
:102F3000214329802988039E314329802988194308
:102F400029802B8810218B432B803F239B02AE8846
:102F50001E406736AE801388234313801388DB0737
:102F6000FCD01F4A136803437F20834313601D482E
:102F70000160044908882043088005B0F0BDC046C0
:102F8000040000500C030050488DFC075200005014
:102F9000B049FC0720000840F99DF0070000000040
:102FA000E3A1F107000000004FA4F10700000000BA
:102FB0005D05FC078B08FC079B09FC07C000FC07AC
:102FC00000000840070010003511FC077C1100507C
:102FD00000110050C01100506C130050001300503D
:102FE00004E400E000E100E00549884200D000BEB2
:102FF00004480188044A11408918091D018070475E
:103000001111111112000050FC7F0000F8B50446A8
:103010000026234F302E0FD0BD19E88AFD2801D19C
:10302000064969605EF76AF9002803D0826828467D
:10303000214690471836EDE7F8BDC0468C3FFC07A7
:10304000B0B50025164C002815D0012D27D8E08AF0
:103050005EF754F9002802D04168204688470020D6
:10306000E0816060A060FF20E082207D59F71BFFB7
:1030700018346D1CE9E7012D11D8FF20E0820020F3
:1030800020606060A060E060206128461030C0B21F
:10309000A082214659F7ADFE18346D1CEBE7B0BD98
:1030A000308CFC077CB5064601AC3320207001252E
:1030B0002046294600F0C4FB0F2030400A2801D3E7
:1030C000372100E03021081820702046294600F002
:1030D000B7FB7CBD10B5EB4C082020701120FDF72C
:1030E00073FF0320607010BDFEB5624803250570B4
:1030F000614C20461438016814220A436B218A432C
:103100000260A06A5D49C8600020C043A0622068D8
:103110003F2188432060206859490840206060684A
:1031200058490840012101918902029140186060CC
:10313000606840210143302081436160A0695249A9
:1031400008400B2149064018A061A0694F4908407A
:1031500069024018A061A06918210143272081431A
:10316000A161432020714A4880474A4880474A4825
:1031700080474048057000954848066848488047A1
:1031800048488047206848490840F10540182060B9
:103190003B4E403620683040490C401820604127A3
:1031A00027716068374908400299401860603848C4
:1031B000804738488047384880472E480570374850
:1031C00005683748804737488047206836490840B7
:1031D000E9054018206020683040490C4018206004
:1031E00027716068274908400299401860602848A4
:1031F000804728488047284880471E48009901702A
:10320000264800682168284A1140C20589182160B3
:1032100021683140254D0540A801081820606068EC
:10322000019988436060154EF068A06220681C21F7
:103230000143232081432160206811490840206018
:10324000A06911490840072189064018A061A069BA
:103250000E4908400F21C9014018A061A0691E2134
:10326000014321208143A1610D4880470D488047DB
:103270007585FEBD0510004018300040B049FC07C0
:10328000FF7FFFFFFFF9FFFFFFFFFFC03FF0FFFFE2
:10329000751BFC073D1CFC07AB0FFC07883000408A
:1032A000511BFC07970FFC07FFFF7F00FF01000089
:1032B00070470000F0B58BB03022002181541F22EE
:1032C0001204384B1D68954301246204AA181A6041
:1032D000364B374D4561374D374E384F384AC2610E
:1032E00006624362304A8262C562364A07604260C3
:1032F000E004BD4A136883431360282903D001A862
:103300004154491CF9E730480068403001A928229F
:103310005BF7F2FE774D6C71FFF7DCFEFFF758FDAF
:10332000FFF748FD00F068F900F0AAFA00F05CF839
:10333000FFF7DAFEEC70254800880721014029716B
:10334000FDF7C6FD224D2889224C6168224E31408E
:10335000081860606889A16831400818A060FEF70D
:1033600087FA288821683140081820601B480188A6
:10337000A26932405118A1614088E16931400818C2
:10338000E061688A216A314008182062A88A616A6F
:103390003140081860629648022181700021018046
:1033A0000BB0F0BD74000040E533FC07E133FC07CF
:1033B000CD34FC07B134FC074113FC078934FC070A
:1033C0008B34FC07B132FC074CB9FC07B810004045
:1033D0001030004088A0FC070000FFFF6430004070
:1033E00000207047704700000E4908880E4A0240CE
:1033F00001204302D2180A8041057B4A13688B439F
:103400001360810700224A671F2212044B6F934307
:103410004004181848670868E022024310208243DD
:103420000A60704738300050FFFC000080B51F2054
:10343000000401218A07536F83434804181850671A
:1034400010680721884310600D48018808220A434C
:103450000280FFF73FFEFFF7BBFCFFF7ABFC00F07D
:10346000CBF800F00DFAFFF7BFFFFEF701FA604856
:1034700002218170002101800520FDF751FD80BDF2
:103480000800005004100040704780B5E62800D3C3
:10349000E620282800D82820F9214A0042437D2030
:1034A000C10010465BF7AEFD7F38C0B280BD0000A2
:1034B0000548016807220A430260012080044A4946
:1034C0000A6882430A60704730000040022902D037
:1034D000012900D000BE002802D0FF2804D000BE81
:1034E000022901D10C207047DE484079002800D025
:1034F00009207047488DFC07F8B53B480168C907AB
:1035000003D0016802220A430260012401684902D3
:1035100003D5A10502680A43026027026502334908
:103520000095084608380668002E5BD0300606D5A0
:10353000802008604AF7ABF9FEF7B0F92B49B007D5
:1035400004D50220086046F7A0F82849300711D5B5
:1035500008200860FDF7AEFA3D46274600242046C5
:1035600046F74CF821490220214A907014803C46CD
:103570002F46009D3E4204D00F60012046F73EF8E2
:103580001A492E4203D00D604AF7EAF9174970062E
:1035900004D54020086046F72CF81449F00604D5FD
:1035A0001020086044F7E8FB104970070CD5042090
:1035B000086010490888A043088059F785FF3FF745
:1035C0003FF8FEF76BF90949F00705D00C6059F791
:1035D00097FF4AF75CF90549B006A2D5202008609C
:1035E00000BE9EE7F8BDC046000200401800004043
:1035F0000410004008330050FCB57F2000025A4AF6
:10360000516981430B20000208185061106880B294
:103610005649401810609069554C044001235803E6
:10362000009020189061032001900002146B044365
:103630001463908F102404439487908818439080DB
:1036400098484C4A02604C4A104610384B4CA58BA7
:10365000054015204301E8185030A0836069484DAB
:103660000540484828186061A069474D0540092079
:1036700040022818A0612068444D0540444828189D
:1036800020606068434D0540434828186060A0688A
:10369000424D054042482818A060E068414D054071
:1036A00041482818E06099484079002802D1C1209B
:1036B000400100E03D483E4D2860052080023D4F1E
:1036C0003880401DB880388C55260643AA20864392
:1036D0003E84FF266C363046C93038853649084668
:1036E0000E30B88535483886B986C01D38873448CD
:1036F0002085A06B3349014033480818A063334C40
:103700002680208F10401F462037C0192087304860
:10371000018811408919D531018081881140C9186B
:10372000818001891140C91901812136A68029486B
:1037300001881140C91860310180818A19220A4329
:1037400006218A438282A88F2349014000980818E5
:10375000A88722480168019A11430422914301601D
:103760001F486866FCBDC0462030004000008888C5
:10377000FF00FEFF59055C071FFCFFFF042000400F
:103780000000E0FF09581A00FEE1FFFFE0E0000042
:103790000809294900000303696A686C031FFFFFD9
:1037A00070600000E0E0E0E00B0A0A082018000961
:1037B0000010004028130040260A000051080000B5
:1037C000070F00002F64E0FE101A060100120040EF
:1037D0004412004088120040FF9F0000801000400B
:1037E000500150010E480188890918220A400088BA
:1037F0008004400F8018704710B51F2149028201D4
:103800000A4007490B88074C1C4014430C800A8867
:10381000054B13404007800C1818088010BDC046A7
:1038200054000050FFF90000FFC7000070477047C8
:103830000248018801229143018070470411005021
:1038400010B5324A118100239381074A0B0407D037
:103850000378948AA406FCD51380491E401CF5E722
:1038600010BDC046488DFC070011005010B504463D
:10387000FDF7BAFB81B22046FFF7E2FF10BD000062
:1038800018B50848016800910099074A009B1A4042
:10389000FF2424040C40D9B20919044BC918114360
:1038A000016018BD8000004000FF00FF0A000A0010
:1038B000B0B50C460649884209D1481C0225194674
:1038C0002B4659F797F8A188018059F7AEF8B0BD9B
:1038D0000D0C000070B504460C2060430B4908181D
:1038E0003A21405CFF280ED00025094E1C20684379
:1038F000315CFF2909D030180169002901D0204628
:1039000088476D1CF2E7FDF745FE70BD488DFC074A
:10391000D03BFC0780B5FDF73DFE80BD02E008C846
:10392000121F08C1002AFAD170477047002001E039
:1039300001C1121F002AFBD1704700001A49888874
:10394000072290438880052000078A89D2070DD07E
:10395000098800290AD115490A8802854A88828483
:1039600089880184418A124A0A404282114906220A
:103970000A800121CA03104B1A60BFF34F8FBFF3B7
:103980006F8F02221A60BFF34F8FBFF36F8F1960E2
:10399000BFF34F8FBFF36F8F418904229143418161
:1039A0000021018062B6704704030050A000FC07AC
:1039B0007FFE00000034005080E100E017B96798F6
:1039C0004C664C01963331B1915900152368EC5285
:1039D0001E6244749A1BD18BAB75B66E9EE7BA0813
:1039E000B9A948ABA1AC031C2E0D296C20EE8D0C9F
:1039F000E1F04A0CB325DC536A68862D28D5E1C175
:103A0000E1C54729B55765C3BA47159E4F43313CB9
:103A1000939242E6A876FA3BEFB4875A8C09E0D13C
:103A2000815442408E4FD2B377E32A7720EE8D0C3B
:103A3000E1F04A0CB325DC536A68862C4F43313CD5
:103A4000939242E6A876FA3BEFB4875917B9679884
:103A50004C664C01963331B1915900142368EC52F5
:103A60001E6244749A1BD18BAB75B66D28D5E1C12B
:103A7000E1C54729B55765C3BA47159D0000000049
:103A8000583FF207688CFC07040001000214000094
:103A9000851BFC07010D0000B11FFC07000D000095
:103AA000691FFC07000E0000DD1DFC07010E000071
:103AB000011EFC07030E0000751EFC070A0E000025
:103AC000BD1EFC070C0E00008531F2071C0D000026
:103AD000C731F207100D00008530F2070F0E00000D
:103AE000F931F2072C0E00003932F207120C0000F7
:103AF0005332F207080E00006F32F2071B0E00006F
:103B00009F30F2075116FC07C916FC077116FC0717
:103B1000A916FC071D15FC076914FC07F800000036
:103B2000130E0000751DFC07150E00007D1CFC0720
:103B3000170E0000B91EFC07190E0000A11EFC079D
:103B4000150D0000651FFC07210D0000E11FFC079B
:103B5000220D0000DD1FFC0708000490000000009B
:103B600000000000030005D08B0035F010005CF071
:103B7000000010B0000018B000001AB0030051F0AF
:103B8000000038B000003AB0000064B0000066B039
:103B9000000022B0000024B0010005D000000000A9
:103BA0000A00008008030490000004F0030006D01F
:103BB000000000000A00008008030490000004F0E8
:103BC000030006D000000000032800280229012974
:103BD000FD000000083CFC072D0000003514FC0728
:103BE000000000000000000000000000FF000000D6
:103BF00000000000000000000000000000000000C5
:103C00000000000000000000CA3BFC07100000009C
:103C10000100000010001000E13FFC07C83BFC075A
:103C20000200000001000000000000000000000091
:103C3000EC39FC0710000000080002000100000041
:103C400000000000CE3BFC07020000000100000065
:103C50000D000D00CC43FC07C83BFC070200000030
:103C60000100000000000000000000000C3AFC070A
:103C7000100000000880000001800000000000002B
:103C8000CE3BFC0702000000010000000900090013
:103C9000AA43FC07C83BFC0702000000010000002B
:103CA0000000000000000000BC39FC07100000000C
:103CB000010200000200000000000000CC3BFC07F5
:103CC00002000000090002000200000000000000E5
:103CD000CE3BFC0702000000010000000B000B00BF
:103CE0005E43FC07C83BFC07020000000100000027
:103CF0000000000000000000CC39FC0710000000AC
:103D0000010000000200000000000000CE3BFC07A4
:103D100002000000010000000B000B007243FC07D2
:103D2000C83BFC070200000001000000000000008A
:103D300000000000DC39FC07100000000102000058
:103D40000100000000000000CC3BFC070200000066
:103D5000090002000200000000000000CE3BFC074A
:103D600002000000010000000C000C00B443FC073E
:103D7000C83BFC070200000001000000000000003A
:103D800000000000FC39FC071000000041000000AA
:103D90001400000000000000CC3BFC070200000003
:103DA000090002000200000000000000CE3BFC07FA
:103DB00002000000010000000C000C008C43FC0716
:103DC000C83BFC07020000000100000000000000EA
:103DD000000000001C3AFC0710000000090202006D
:103DE0003200000000000000CC3BFC070200000095
:103DF000090002000200000000000000CE3BFC07AA
:103E000002000000010000000A000A00C143FC0794
:103E1000CA3BFC0710000000010000001000100069
:103E2000F13FFC07C83BFC07020000000100000056
:103E300000000000000000002C3AFC071000000009
:103E4000080002000180000000000000CE3BFC07DB
:103E5000020000000100000008000800A143FC0768
:103E6000C83BFC0702000000010000000000000049
:103E7000000000003C3AFC07100000000880000031
:103E80000100000000000000CE3BFC070200000023
:103E900001000000110011003B43FC07CA3BFC0776
:103EA0001000000001000000100010000140FC079D
:103EB000C83BFC07020000000100000000000000F9
:103EC000000000004C3AFC07100000000102000056
:103ED0000200000000000000CC3BFC0702000000D4
:103EE000090002000200000000000000CE3BFC07B9
:103EF0000200000001000000100010004D43FC070C
:103F0000C83BFC07020000000100000000000000A8
:103F1000000000005C3AFC071000000001000000F7
:103F20000200000000000000CE3BFC070200000081
:103F300001000000070007009943FC07C83BFC078D
:103F4000020000000100000000000000000000006E
:103F50006C3AFC0710000000410000000200000065
:103F600000000000CC3BFC0702000000090002003A
:103F70000200000000000000CE3BFC070200000031
:103F800001000000120012002843FC07943FFC07C8
:103F900009000000130C00004B29F207150C00006B
:103FA000E51FFC07170C0000572BF207000C000060
:103FB0002328F20706FD00005728F20703FD000042
:103FC0003728F20708FD0000B328F2070EFD0000B5
:103FD0000F29F20705FD0000C518FC07001A212D66
:103FE00003595A08E4862A9E8FE911BC7C98434203
:103FF00018595A08E4862A9E8FE911BC7C7C4642F7
:1040000018595A08E4862A9E08E911BC7CD0474218
:104010001800000001000001050AFC070100000271
:10402000F50AFC070000000000000000F401170082
:10403000F4352348D0070640643200001400000025
:10404000E514FC0700000000FF0000000000000075
:104050000000000014000000ED14F207FD00000055
:104060002126F207FF000000000000003D15FC07BC
:104070008514FC07E843FC07B138FC07043BFC0748
:10408000808DFC079C8CFC07698CFC0705000000F8
:104090000051FC07000400000C92FC07AC02000079
:1040A000008EFC0700040000C494FC0770050000AB
:1040B0002003000000A60E0004000000D200000053
:1040C000320000003C000000010000000100000080
:1040D00002000000020000000400000003000000D5
:1040E00006000000000000000200000002000000C6
:1040F00000000000000000000300000003000000BA
:104100000500000005000000060000000A00000095
:104110000A000000C8000000B80B00000200000008
:10412000B80B0000B80B000010000000D401000024
:10413000CC010000700200006A00000004000000D2
:1041400001000000200000000A0000000100000043
:10415000E20400008A020000DC050000AF0000005D
:104160001443FC077841FC078841FC071C43FC070B
:104170006C40FC0700000000A8B8FC07A0B8FC07D2
:10418000B8B8FC07F8B8FC07DC3FFC07E03FFC07C9
:10419000083CFC073D19FC07B532FC072D34FC0731
:1041A00093DEF007F1DEF007F9DEF00749DFF007F4
:1041B00061DFF00777DFF00799DFF00719E3F00719
:1041C000BDE5F007FDE3F0071DE4F0073DE4F0076F
:1041D0007BE4F0078BE4F007F5F9F007B1F7F0079F
:1041E000CFF7F007EBF7F00705F8F00719F8F0073D
:1041F00097F8F007AFF8F007DFCDF10767D0F107C8
:10420000DBB9F007CD0DF207B10EF207AD0EF207E4
:10421000A90EF2078D21F007E92FFC073121FC07D9
:104220006921FC071122FC070922FC07B57EF00773
:10423000837DF0077501FC07599EF107634CF10778
:104240004130FC07D110F2070D30FC07B111F20725
:104250004112F2077912F207000000004D19FC0725
:104260004F19FC07B9C6F007D592F1070302FC0706
:104270005F9DF1075F9CF1071505FC07EB72F107E5
:10428000B922F1076B04F107C118FC072BA4F00752
:10429000F1D2F0075FBDF007D5BDF00785BEF0078E
:1042A000DB2DF007752EF0071581F007DF7FF00793
:1042B0000937F007000000002D1BFC07351BFC0729
:1042C0002D18FC07F3C3F10775C4F10703C5F10707
:1042D0004518FC070000000000000000000000007E
:1042E00000000000000000000000000000000000CE
:1042F00000000000000000000000000000000000BE
:1043000000000000000000000000000000000000AD
:10431000000000002C40FC07708DFC075440FC0797
:10432000308CFC070200000052656164206D65203E
:1043300028696E64696361746529005772697465E0
:10434000206D6520286E6F207273702900526561A0
:1043500064206D6520286E6F746966792900414478
:10436000432056616C75652031004441313435334A
:1043700031004144432056616C7565203200765F00
:10438000362E302E32302E3133333800496E646988
:104390006361746561626C650052656164206D657E
:1043A000005772697465206D65004C454420537454
:1043B00061746500427574746F6E20537461746526
:1043C000004C6F6E672056616C756500436F6E74AC
:1043D000726F6C20506F696E740000004449414C4C
:1043E0004F472D544D504C00D538FC071539FC076C
:1043F0000000000000000000851AFC07000000001B
:1044000000000000000000007D19FC070000000013
:1044100000000000000000009119FC078519FC074E
:10442000A519FC07951AFC0700000000211BFC07DA
:104430005119FC0700000000000000003D1AFC07B5
:10444000D11AFC070000000000000000B919FC07A9
:10445000000000000000000000000000000000005C
:10446000000000000000000000000000000000004C
:10447000000000000300001000010000A044FC0741
:10448000A044FC07600C00002C39FC07C08BFC0723
:10449000C08BFC07400200002C39FC070E00000016
:0400000507FC0111E2
:00000001FF
