:0200000407FCF7
:100000006052FC072501FC072D01FC074501FC0798
:1000100000000000000000000000000000000000E0
:100020000000000000000000000000005D01FC076F
:1000300000000000000000005F01FC07B714FC078F
:100040005910FC07892BFC07A526F007B914FC07FB
:100050006D12FC076301FC071D10FC076301FC0720
:100060002910FC076301FC070511FC070F11FC07B1
:100070001911FC072311FC072D11FC076301FC0774
:100080002115FC076301FC076301FC076301FC0702
:100090006301FC076301FC076301FC076301FC07C4
:0800A00000008E070E000000B5
:0200000407FCF7
:100110000348854600F070FF004800479524FC071F
:100120006052FC070F4880470F4800470420714683
:10013000084203D0EFF309800C490847EFF3088029
:100140000A49084704207146084203D0EFF30980AA
:1001500007490847EFF3088005490847FEE7FEE72F
:10016000FEE7FEE7953AFC071101FC07F513FC07D3
:10017000ED11FC07F8B50746012000230246009068
:100180001946032049F73EF90446022180300170E8
:10019000FF4DFE482A6843881146FF31F7310B8630
:1001A00080884886FB48066A0123DB069E431E437F
:1001B0000662FF320020FF32383250829082D082B5
:1001C0001D200882F4484884F448C882F448088313
:1001D00000204882384649F755FC01462868FF3020
:1001E000F730C28B920992010A43C283ED484168FD
:1001F00000208847002C02D0204648F7ECFC20461F
:10020000F8BDFFB58BB0064616980027022821D00E
:100210000D9801881498814278D371880846403837
:100220003F2802D8159855F7E9FC0C98361D008830
:10023000149A80190E995EF75FFF0C980188149844
:1002400008180C9908800D9801881498081A0D99BF
:1002500008805CE100200E9D079069782C780902E7
:1002600021433180E978AC780902214371808C46C2
:10027000403904242D1D024603468E46402900D3F2
:100280002878614604291FD0052914D0062918D0E2
:1002900070463F283DD8159855F7B0FC0006000E73
:1002A00004D0C148008D0006C00F30D002230120C9
:1002B000BE4A002712E0697800290FD0BC4A1723F4
:1002C0000CE0BC4A0F2309E0522802D0D22802D009
:1002D00002E0142000E01520B74A1F23002A1AD09C
:1002E000984218D2800010580490002813D00020A3
:1002F0000890059070884038402803D3287805245A
:1003000030716D1C701D00900498B5E0FEE0302740
:10031000F0E03327EEE07088042872D10627E9E088
:10032000522862D00CDC4B283FD004DC41286AD034
:10033000422858D111E04C2820D0502853D140E019
:10034000632830D004DC572818D061284BD19BE0BB
:100350006C2864D0772846D109E00098297801708C
:100360000098641C401CA4B26D1C009081E00498AD
:10037000401C04900178089881427AD10098A41C0E
:10038000401C41084900881C009068782A780002C7
:10039000104308800599AD1CA4B2002969D00890CB
:1003A0000020059065E00120FBE710222946009817
:1003B0005EF7A2FE009810341030A4B21035009001
:1003C00057E0204640301499039088420BD84022D1
:1003D000294600985EF790FE009840300090039800
:1003E000403584B245E0342743E00822294600988E
:1003F0005EF782FE009808340830A4B208350090F9
:1004000037E068E0FFE70622294600985EF774FEB1
:100410000098A41D801DA4B2AD1D009029E0149881
:10042000001B80B203903088001B001D81B20120A8
:1004300007900498401C04900098401C400840001D
:1004400000900498007857281CD04228CBD10098FF
:100450000170090A417000982946801C0090039A97
:100460005EF74AFE03980399201884B2009840185A
:1004700000900498401C0490007800281ED0002FA3
:1004800017D01BE04908E2E71498001B81B20098DE
:100490000391401C40084000009001200A4607904C
:1004A000294600985EF728FE0399601884B20098E8
:1004B000DDE70D990988A14200D331E70D98008846
:1004C000A04208D304990978002904D1079900298A
:1004D00003D1A04201D034270CE00D99001B088005
:1004E0000C9801880098801B001F08180C99002F99
:1004F00008800CD07088042809D0062807D040381E
:10050000402804D30E984079707100E034273846B3
:100510000FB0F0BDFFB581B01F4616460C46104621
:100520005CF7AEFC00257F2802D02189062909D07E
:100530003B4632462146019855F7F3FE05462846CC
:1005400005B0F0BDC00601D50225F8E720780028E7
:10055000F5D1300AA11D42F77CF8F0E7F1B598B06B
:10056000189842F774FA0446189805210079134A3E
:100570004006C00F099068460184618B08460A381E
:10058000904276D2E08A062873D319E030BCFC078B
:100590004CB9FC07C0000040108000002941000059
:1005A0007671000058BFFC0748BEFC073803F2070D
:1005B0004003F2079C03F207D803F207770C000010
:1005C0001922D201904254D8228BFF23F5339A424C
:1005D0004FD8521C9300D2184243521C0A23521087
:1005E00059438A4245DC217F00290CD1617F0029D3
:1005F00009D1A17F002906D1E17F002903D1202163
:10060000095DC90635D0274620377978C906C90E55
:10061000491F0C292DD2A18A81422AD8E17C0029C8
:1006200027D0421E082A01D9082000E0401E81423E
:100630001FD8684646F7CCFA00281AD1FE4D06228C
:10064000286221460AA85EF757FDA8792E46803E0B
:1006500000287DD06079800901280BD00AA809996B
:100660004CF785FD010003D03820405C002870D095
:100670009BE008E1F06A807A012808D0042806D0BF
:100680000AA84CF7E1FD286200284ED054E0686AC1
:1006900006220AA932305EF753FD002806D00AA8C8
:1006A0004CF7D2FD2862002802D012E0686AF9E710
:1006B00000210AA84CF7DEFD2862F16A897A012937
:1006C00005D18B071A6849068A430A431A60002835
:1006D00011D0F16A286A0622253010315EF730FD0C
:1006E000002808D1286AF16A2030C07AC97B884284
:1006F00001D1286A1EE0D148D1490088C96880B27A
:1007000006225043081842F7A7F9014614A806220A
:1007100002305EF7F1FC13AA00213C2042F769FC8D
:100720000121B06D47F790FEA9E011A90AA84CF786
:10073000A1FD2862002838D00146253106220FA8E5
:100740005EF7DAFC286A08AA2030C17A0FA801E017
:1007500041E024E04CF7EEFB002812D0286A20305C
:10076000C07A002809D16846B649008C4BF755FB82
:1007700008AA0121B3484CF7DDFB68460AA9008CA2
:100780000AE008AA012111A84CF7D4FB00280CD0DC
:10079000296A6846008C32314BF755FB05E00A1890
:1007A000527D002A08D010286DDBF06A407A0228BA
:1007B00006D0032804D00EE0401C1028EFDBF4E73D
:1007C0006846008C052806D308AA0AA809994CF7A0
:1007D000B1FB002857D00022694620464CF753FC55
:1007E000002850D1F06A407A02280BD0032809D0A3
:1007F0000023684602880AA809994CF765FC00287E
:1008000002D02FE00123F4E7E18A68460181218BC1
:100810004181618B81817878062241096846817522
:100820007878C106C90E6846417521460E305EF7DC
:1008300063FC189800794006C10F6846017503886B
:10084000214602A8B26D47F7A5F90146B06502A896
:1008500042F71DFC0020B065214668461C31008827
:1008600046F709FA49F788FA734C2034207A0028B1
:1008700005D0002109205CF746FC002020720021F1
:1008800008465CF7E8FA19B0F0BDF8B56E4C0646BC
:1008900085000F4660594C21095C24290ED140691E
:1008A0001022791D2E305EF727FC6159252040313A
:1008B000087300221146304654F7F3FA60594C2170
:1008C000095C0C291FD140691022791D2E305EF77A
:1008D00013FC60595F214069095C09072DD401466A
:1008E0002E3110221E305EF72BFC00280CD06059F0
:1008F000092140300173304654F7F0FF01460022D1
:10090000304653F74DFEF8BD0421684601706A4633
:100910000521304653F7EEFF684601786020014319
:1009200068460170304654F7D9FF014668460278A0
:100930000123304653F749FFF8BD304654F7CEFF48
:10094000012809D060590721403001730022114667
:10095000304654F7A6FAF8BD615900204969C03104
:10096000887160590421426930461E3253F7C2FF34
:10097000605941694031897F002907D01A214030F0
:1009800001730021304654F716FBF8BD1B2140309F
:100990000173304654F764FBF8BDF8B52A4C0546A0
:1009A0008600A0594C22125C192A11D140224D30E8
:1009B000491D5EF7A1FBA059402224494D305EF746
:1009C000BFFB002805D02149284620395BF723FDCD
:1009D000F8BD0B21684601706A460521284653F789
:1009E00089FF684601786020014368460170284607
:1009F00054F774FF0146684602780123284653F7EE
:100A0000E4FEF8BDFFB581B003980C46060A002548
:100A10005CF736FA002827D0132825D0142823D0D5
:100A20000B48B700C0592030407BC00637D503982B
:100A30005CF726FA15280DE030BCFC0768B9FC0706
:100A400060BBFC0750F5F1073CBEFC07FCBDFC0792
:100A500078BBFC070CD0A07941F7ECFF304647F794
:100A600087F8032806D015E0A07941F7E3FF1FE0DF
:100A700002251DE03248C0592030407B400704D594
:100A80003D21304642F7D4FC04E03D2200213046AF
:100A900042F7DDFC3D21304646F7B2F808E020463B
:100AA000103828490181468120464EF79BFD0125DB
:100AB000284645E524485222006864308188C37E78
:100AC0005143224A12688918FF225F32525AFF317D
:100AD000120AD21A01310B8CD2B2DB0B09D00B8C6B
:100AE0005B045B0C0B84002A03D18088184A012127
:100AF00011547047FFB51746140A81B0104A029886
:100B0000A100515840780026114D002907D0295DD9
:100B1000002905D0002803D1204643F7EDFE2E55CD
:100B20003A46049B0299019844F777FE08E50A4883
:100B300008490160094941607047704770470000EB
:100B400078BBFC070608000084BBFC074CB9FC0717
:100B5000C08BFC070459F007C0000840490C00BFD7
:100B60007FB5E4486B460188428889186A4611803F
:100B700001214C0022181546403DED8F065B52883E
:100B8000AD19AA18491CC9B21A530729F1D3818992
:100B9000C089081881B2D981D888002821D0188945
:100BA000002820D0988800281FD0588900281ED0FF
:100BB000988900281DD0588800281CD000291CD0F6
:100BC000188800280BD00720062254001C5B8C429A
:100BD00001D22146D0B2521E52B2002AF5DA04B038
:100BE00070BD0320FBE70420F9E70220F7E70520AA
:100BF000F5E70620F3E70120F1E70720EFE7F0B57E
:100C000095B0EFF310801090012080F31088BA485F
:100C1000816B4A07520F69460A800A92816B012252
:100C2000C908C9008163B5498B8869464B80022495
:100C3000B24B00219980C16A09078B0F69468B80EE
:100C40000F93C16A0C2399430831C162052109073A
:100C500009880906CB0F6946CB800521090709934E
:100C600009888023194305231B071980A449898A11
:100C70004906CB0F69460B81A1490893898A402315
:100C800019439F4B9982016A09074B0F69464B81B3
:100C90000C93036A0E218B4303629B4D9948686055
:100CA000FF204030A8602888A043288097484168EA
:100CB0000B071B0F69468B810B93416809090901DA
:100CC00008314160416849064B0F6946CB810D935D
:100CD000416870239943603141608748403801681A
:100CE0008904CB0F69460B820293036841140B43BE
:100CF00003600168CB07DB0F69464B820E930168E6
:100D00001143016041688903CA0D69468A820392D2
:100D10004168CA05D20D6946CA8204928168890376
:100D2000CA0D69460A8301928168CA05D20D6946D7
:100D30004A8305924168764A11400322D2038918FA
:100D400041604168490A4902FF314131416081688F
:100D50006F4A11400322D203891881608168490AD1
:100D60004902FF3141318160642000F02DF9A889EA
:100D700069468007C00F8883A8892043A881002482
:100D8000604F288800260121084328800A2000F0AF
:100D90001BF9FF205F4941303A680A4200D0761CB7
:100DA000401E3F1D0004000CF6D1A88A8004FCD12F
:100DB0005149886B671CC208D2007807400F024374
:100DC0008A630A2000F000F960004A49FCB20E5222
:100DD000082CD5D348480A99826BD208D2000A431E
:100DE00082636946454A498891800F998A00C16AA1
:100DF0000C2399431143C1620999CA0105210907CE
:100E0000098880239943114305221207118008990C
:100E10008A013B49898A402399431143384A918288
:100E20000C994A00016A0E23994311430162374825
:100E30000B994268120912010A4342600D994268F7
:100E4000090170239A430A434260029841032A48E9
:100E50004038006801225203904308432649403934
:100E600008600E9809684908490001432248403843
:100E700001600398420220484038406824490840F5
:100E800010431D4A403A506004985268520A520278
:100E900002431948403842600198174A4002403ADC
:100EA00092680A400243144840388260124905980B
:100EB00040398968490A490201430F484038816036
:100EC0001098002800D0012080F3108815B0F0BDE4
:100ED00010B5114C2078002808D0FFF790FEFFF7DE
:100EE0003FFE0E4908700020207010BD01F044FC48
:100EF0000120F9E7F84AFC0780100040001200408A
:100F000020300050F845FC070035005040200040DC
:100F1000FF01FCFFC0C0C0C04B8DFC074A8DFC0721
:100F200010B5FF22154901320A60BFF34F8FBFF39E
:100F30006F8F13490A6013490B6840241B0A1B0278
:100F400023430B601049898A0021C30700D0352153
:100F5000830702D57D231B021943430702D575235E
:100F60001B041943000702D53D2000060143064833
:100F70002038016301488038026010BD80E100E044
:100F800080E200E008E400E0A010004010B5062078
:100F900000F01AF810BD10B5092000F015F810BDCA
:100FA00010B5812000F010F810BD10B5044800F015
:100FB0000BF810BD10B5034800F006F810BD000096
:100FC000010200000108000000280CD000BF00BF93
:100FD00000BF00BF00BF00BF00BF00BF00BF00BF19
:100FE00000BF401EF0D17047421C0178401C002910
:100FF000FBD1801A70470000064C0125064E05E023
:10100000E36807CC2B430C3C98471034B442F7D329
:10101000FFF782F8D445FC07F445FC07014801219D
:10102000018070470E1500500A48011F0988CA0741
:1010300006D0028807239A43EC4B9B781343038026
:10104000490706D5018807229143E84A12790A43E5
:1010500002807047B810004010B5264B0820188059
:1010600005200007018830221143018004880321F4
:101070000C4304801C896407FCD4038893430380D9
:1010800003888B430380D94BDC8944801B8A9C1ED8
:10109000194B5C8007241C80048814430480048856
:1010A0000C4304801C886407FCD4038893430380AA
:1010B00002888A4302804289920702D042898A4389
:1010C0004281018980220A430281018A04229143DC
:1010D0000182818A8907FCD541F723F9074800215D
:1010E000016007480168490700D500BE016849074B
:1010F000FCD510BD0033005000160050080200401F
:101100001000004080B50A2000F04EF880BD80B588
:101110000B2000F049F880BD80B50C2000F044F8A9
:1011200080BD80B50D2000F03FF880BD80B50E2059
:1011300000F03AF880BD0000F8B51446009106466C
:101140000120002132465EF71BF807460D46F349A1
:10115000486B2840096B3940014300D100BE30463E
:1011600000F010F8ED49486B2840096B3940014305
:1011700000D100BE00980443700001494452F8BDFC
:101180000630005010B50446E449086B496B22460E
:1011900062F755F9C00700D100BE0120A040014907
:1011A000088010BD0430005070B5C0B203460A3B41
:1011B00001210A469A4093B20A4C1C195C40660809
:1011C000094B1C880025360402D06D1C760CFAE70A
:1011D0009443AAB20D46954025431D808140AE48F8
:1011E000016070BDFFFF01000E140050F8B5044609
:1011F00001273E0205200507688DC00506D51B2086
:1012000001F046FEA64801883943018080362888CF
:1012100040013040698AA34A0A4002436A82216839
:101220001148016061684160A1688160E168C16046
:101230002169016161694161A1698161E169C161FE
:1012400004629A490A6842624A6882628A68C26293
:101250004A690263CA68426309698163A88AC00651
:1012600000D4FEE700BEF8BD0090FC0702480088ED
:1012700089481021016070472C130050F8B5F34DD8
:10128000686B286B000700D400BE154E08207080E4
:101290000324002120460A46FFF74EFF0A2000F0F3
:1012A000FFFC686B286BC00600D400BE1027778057
:1012B0000A2000F0F5FC686B286B000700D400BE24
:1012C00031463688686B286BC00600D400BE8F801C
:1012D000210200222046FFF72FFF3007C00FF8BD84
:1012E0000030005070B5D94C606B206B000700D403
:1012F00000BE3F4D08266E800A2000F0D1FC606BD6
:10130000206BC00600D400BE102028800A2000F008
:10131000C7FC606B206B000700D400BE2E800A2043
:1013200000F0BEFC70BDC04670B5C84D696B2A6B3D
:1013300008210A402E4C002804D0002A00D100BE0B
:10134000218003E0002A00D100BE61800A2000F065
:10135000A7FC686B286BC00600D400BE1026268050
:101360000A2000F09DFC686B286BC00600D400BE0C
:10137000668070BDF8B50446002927D0B34D686B70
:10138000286BC00600D400BE194810270780686B80
:10139000286B000700D400BE0826154806800A20E6
:1013A00000F07EFC686B286B000700D400BE10487C
:1013B00046800A2000F074FC686B286BC00600D4DD
:1013C00000BE0B4847800A2000F06AFC0025072D6C
:1013D00006D880202040FFF7A7FF6D1C6400F6E7C9
:1013E000FFF74CFF41424841F8BDC046488DFC071D
:1013F00002300050F8B5044605200507288A04216C
:10140000014329822889402101432981224801275B
:1014100007602248082101803E02688DC00506D57C
:101420001B2001F035FD1E480188394301808036BC
:10143000288840013040698A1A4A0A4002436A8279
:1014400021681948016061684160A1688160E168B4
:10145000C1602169016161694161A1698161E169DD
:10146000C161046211490A6842624A6882628A68FC
:10147000C2624A690263CA68426309698163A88AD1
:10148000C00600D4FEE700BE688A0949084040183B
:10149000001D6882F8BDC04680E200E000330050C5
:1014A000800000507FFE00005090FC0728ED00E017
:1014B000FC7F000070477047B0B5174C634DA188A2
:1014C0000F200840022806D0042810D00C2811D084
:1014D0000128F4D11FE02889A98981420FD2A08870
:1014E000C02101402046C02912D0103011E002F086
:1014F0004DFAE4E702F04AFA2088012105E020884D
:101500000221884320802088802188432080D6E7DC
:1015100078300088D3E7B0BD04110050488DFC0737
:1015200005210807028830239A430280028803239A
:101530009A430280828812050DD5184A13880B4001
:10154000052B08D110880421014311801088012146
:101550008843108070478188C90606D510498A885B
:10156000D20702D00A88120610D48088C0060CD593
:101570000B488188890708D50188C90505D502214E
:1015800081800188074A0A400280704701208880D4
:1015900008888022904308807047C04600020050AF
:1015A00000010050FFFE000070B5384809210424F6
:1015B000182322465BF71EFA05461B202870FD26DD
:1015C000304662F769F80021A982E96029616C6000
:1015D0006E80687028465BF728FA70BD1FB5144608
:1015E000002202920192069A00921A46234661F75F
:1015F0007FFE04B010BD0000B0B5144882791449D4
:10160000D4B20C236343CD5CFF2D0AD0012C02D150
:1016100002228271F4E7521C8271C8184068804728
:101620000EE0C1790B4ACCB21C236343D45CFF2C7F
:1016300008D0491CC171D318DB68002BF3D0984740
:101640000020B0BD0021C1800120B0BD488DFC0745
:101650009441FC07283DFC0770B50C48092104247F
:101660000A2322465BF7C6F905461B20287014267C
:10167000304662F711F8FF21743129816C606E8069
:10168000687028465BF7D1F970BDC0461B0D00009D
:101690001FB5144601220292044A0192069A009252
:1016A0001A46234661F724FE04B010BDE43BFC0754
:1016B00070B5124D2C68002C19D111480921042253
:1016C0002C235BF797F904462860172020840D48E7
:1016D00020800026668020460A3011215DF725FD16
:1016E0002685E6846684E683A6832020E07620466D
:1016F0005BF79BF90020286070BDC046648CFC0736
:10170000040D0000030A000010B5154C20680028E5
:101710001CD114480921042252235BF76BF90246BD
:101720002B2000211154226091720F48D0809080AC
:101730000D201080D172FF200830108110460B3030
:101740000C320B21094B61F7E5FE20685BF76DF960
:1017500000202060042002215BF77DFB10BDC04605
:10176000608CFC070D0D00004C0400003445FC07A4
:10177000F8B500920D468100104A56585418002EB4
:101780000AD101020A310E4804271E233A465BF7AC
:1017900031F9064607702060B71C102138465DF706
:1017A000C4FC38462946009A5DF7A6FC01207070FB
:1017B00030465BF73AF900202060F8BD988CFC07B2
:1017C000140E00001FB514460E220292044A019224
:1017D000069A00921A46234661F78AFD04B010BDAE
:1017E000EC3BFC0710B5014601200A4A914210D398
:1017F000121D91420DD8029CF231C8B28100064AF6
:101800005058002803D0511800220A608047002059
:10181000207010BD0E040000808CFC071FB514461C
:1018200007220292044A0192069A00921A4623461F
:1018300061F75EFD04B010BD783CFC0770B50C4646
:101840004C4988421ED04C4A90422CD04B49884289
:1018500047D12078401E09285ED88000494A115897
:101860004E4B99425CD04848814200D07CE04248CF
:10187000042108230A465BF7BDF8217801706168EE
:1018800041606FE06268002A01D100BE62683C4896
:10189000824201D300BE6268207837494018042193
:1018A0005BF7E7FB60E02578681E092836D88000E2
:1018B00034490B58344EB34256D10818816A01603E
:1018C00064683248018809062FD53149096809043E
:1018D0002BD430490988C90727D1A81804212246EA
:1018E000DEE7531C0121984241D30A3290423ED890
:1018F000C01EC0B2411E8A00224B9958002933D025
:10190000214CA14230D0254CA1422DD09A18002361
:1019100013609362884727E000BE25E000BE23E005
:1019200010180021016081621EE0EFF31083012195
:1019300081F310880088000603D4174806880E43F8
:101940000680002B02D081F3108802E0002080F393
:101950001088901E80B2042108230A465BF74AF8DB
:10196000446005705BF761F8049800210170084637
:1019700070BDC04601040000030400000204000022
:10198000FDFF3F00B08DFC078B39FC0708000050BD
:101990003000004054BAFC07083300508939FC0776
:1019A000B0B50C460025202D04D040F7A8FF6055A7
:1019B0006D1CF8E70020B0BD10B504460548064987
:1019C00070225DF799FB0548001B0549088014301B
:1019D000488010BD70A0FC07B03CFC07B8A0FFFF1A
:1019E00078A0FC0710B507480188074A1368074C20
:1019F00023405918116040885168214008185060F0
:101A000010BDC0463830004098A0FC070000FFFF22
:101A100007481E214180018803220A430280018871
:101A200004220A4302808648012101707047C046A3
:101A3000001600507047000070B514460D46104661
:101A40005BF71EFA01282FD1287801020831AA7904
:101A50001648002A0CD089B2062322465AF7CAFF3C
:101A60000646A87860F7E2FC3080A879307114E06F
:101A7000AA8889B2921D93B222465AF7BBFF064646
:101A8000A87860F7D3FC002131713080A88870807D
:101A9000701DAA88E91D5DF72FFB30465AF7C5FF78
:101AA000002120465BF7D7F9002070BD140C000020
:101AB000FD2801D00020704700487047283DFC07F2
:101AC0007047704710B5044640793F280FD840F75B
:101AD00016FF2070010EE170010CA170000A607009
:101AE00040F70DFF2071000AC0210143617110BD54
:101AF00080B5FFF709FE80BD6621514A515A018029
:101B00007047C04680B544224D498A5C0270401C33
:101B100045315DF7F1FA80BD7D21C18000218180D2
:101B2000102141800821018070470000FEB57A2411
:101B300002904443F04807194E783E773D461435ED
:101B4000082128460A4661F70BFC38461C300190F4
:101B5000102E04D8B81C1022314661F701FC40F762
:101B6000CEFEE54B195D01220A431A557882029E8A
:101B7000304600F075FC019909780177798A418235
:101B800069882A88EB88AC88048343838282C18277
:101B9000B91C801C10225DF7AFFA304600F060FCE3
:101BA0005AF743FFB000EE49081800214162FEBD1C
:101BB00070B581000D4A54585518002C10D10102FF
:101BC0000A310B4804221E235AF714FF044601264B
:101BD00006702860801C074907225DF78DFA667041
:101BE00020465AF722FF0020286070BD948CFC0725
:101BF000140E0000CC45FC0780B561F761FC00289D
:101C000001D0FFF781FD80BD10B50C460178012998
:101C10000CD0002910D142884421F74B5A54453347
:101C2000011DD2B218465DF767FA03E040886621CD
:101C3000F14A5052002000E04820207010BDC046FC
:101C4000488DFC07F0B585B04A78032A15D8C04600
:101C50007A441279520097440601010C0849019117
:101C600001A9042207E007A201A90B46F0CAF0C3AC
:101C700000E0891C1022FFF77BFD05B0F0BDC046D7
:101C800040E20100000102030405060708090A0BEF
:101C90000C0D0E0F002088804880012008707047CE
:101CA0000021814207DA0322002A02D000BF521E1F
:101CB000FAE7491CF5E7704780B55FF75DF980BD2D
:101CC000F8B56946C870020A8A70020C4A70000EA4
:101CD000087008465FF738F98FBD000080B54948A5
:101CE00000210160FFF75CF9444800781F21490199
:101CF000414A13688B43C006800DC018106080BD38
:101D000080B53F4802210170FFF740F980BDC04611
:101D1000F8B51F460C460878082811D80725002179
:101D200000911AA6784400794000874419040F04F2
:101D30000606121518001A4E12E00D25174E0FE078
:101D400000BE002601200090354609E00A2515A6B0
:101D500006E0082518A603E006250EA600E014A656
:101D6000AB1C184839465AF745FE074620783870AC
:101D70007D700098002804D1B81C31462A465DF7D2
:101D8000BBF938465AF751FE0020F8BD52656E6522
:101D900073617300FFEEDDCCBBAA0000D644FC07E4
:101DA000C244FC07312E302E302E302D4C45000021
:101DB00001D2008005000100123456FFFE9ABCDEFD
:101DC000000000000314000080B50B48016889057D
:101DD000C90E0A4A11701F21490102688A43026034
:101DE0000748012101700748016803220A43026085
:101DF000FFF7D6F880BDC0464C120040F445FC0702
:101E000006100040AC10004070B50C78A51E052DE2
:101E100037D81C0A7D442D796D00AF44022132353C
:101E200043517A206043844A151888787821685491
:101E3000C0070DD071350C206043AA490E183146F9
:101E40003D31062228465DF757F93C20305CA871E9
:101E50000C206043A349081843210022425449E062
:101E60007A206043744908187821002242540C20DB
:101E700060439C49081843214254204661F780FB87
:101E800038E001F0C1FD35E07A2565436A4C601900
:101E90003A30891C17225DF72FF9605D0421014358
:101EA000615527E07A256543634E70196130891CBE
:101EB000102422465DF720F9705D2043705519E02B
:101EC0007A2060435C4A14188B1C488A002808D08A
:101ED00020461E301C2219465DF70EF9207802219B
:101EE00006E0A01C1C2219465DF706F920780121A6
:101EF00001432170002070BD9C8CFC0780B50A78DE
:101F0000072A24D8180A920001A39A589746C04677
:101F1000311FFC074F1FFC074F1FFC074F1FFC071B
:101F2000531FFC075D1FFC075D1FFC07591FFC07C3
:101F30007A214143404A002353540C214143694ACA
:101F40005118432201238B54FFF732FE06E000BEF6
:101F500004E0FFF777FE01E0FFF7E8FD002080BD19
:101F6000488DFC0710B50C78012C03D0092C09D042
:101F70004C7802E04C78432C02D0002C00D000BEFC
:101F800001F042FD002010BDF8B51C4610460D467C
:101F90005AF776FF02282CD1240A00D000BE0C206C
:101FA0006043ED490F183A203C54FF2C1DD03E46AB
:101FB000383601200090F070042003215AF74BFFBF
:101FC00028883887687A30713D370A3506223846C6
:101FD00029465DF791F87A2060431749081878215F
:101FE000415C2046009A61F77FFA204601F01EFD11
:101FF00000E000BE0020F8BD488DFC0710B51C466F
:1020000010465AF73DFF032809D1200A0C2141430D
:10201000D1484018FF214187FFF776FB00E000BE62
:10202000002010BD180A7A2242430348801809781C
:1020300078228154002070479C8CFC070020704758
:10204000F0B58BB01D46087802282AD0012837D079
:10205000002842D101924420F74F3E5C00211F2E00
:10206000029101D82020811B03ACA01900945DF7D8
:102070005CF845372046394632465DF73DF8334631
:102080000A3317482946019A5AF7B4FC0446468099
:1020900002982070201D009932465DF72DF82046E9
:1020A00019E00F480A2329465AF7A4FC7D21018133
:1020B0000021C1801021818008214180022109E096
:1020C0006620F2490E5A06480A2329465AF792FC1E
:1020D0004680012101705AF7A8FC00200BB0F0BD2A
:1020E0000B0E0000488DFC070020704770B50C787F
:1020F000172C14D80125A5400D4E354201D00020E3
:1021000070BD012C06D0032C09D14878002809D0D5
:1021100000BEF4E74878002807D000BEEFE701F0E2
:1021200073FCECE7FFF768FDE9E7FFF7C1FAE6E7C4
:1021300000F08E0010B510465AF7A2FE002801D01C
:1021400000BE09E0054809210422012423465AF76C
:1021500051FC04705AF769FC002010BD020D00000C
:102160000020704700207047F0B589B003931646F1
:102170000C46FD205FF73CF80290002800D100BE1D
:1021800008A900270F70208860F75EF9054660886F
:10219000002800D000BE002D78D1FD20FFF788FC7C
:1021A000002800D100BE0399090A009108A90A7805
:1021B0001421514343685D182D79022D24D15958BB
:1021C0000988394B99421FD100200590049020883E
:1021D00060F7D5F8002800D100BE07A9002204ABA3
:1021E0004EF7C2FE0120400207990140480A2146ED
:1021F00060F7B0F8C5B2002D29D1E28808A80178AF
:10220000009860F782FA22E001968669002E3D462A
:1022100006D0A5886188A31D10462A46B04705460A
:1022200005970497208804A94EF719FC002D019EFC
:102230000DD108200499085E002807D46288A1887F
:102240002088A31D4EF775FC054600E00025002DF3
:102250001CD10298009F39465EF7E8FF0146A0882E
:10226000801D83B2114832465AF7C4FB0546801DD3
:10227000A288A11D5CF740FF08A800786880A088AC
:10228000A8802F7028465AF7D0FB00250848042361
:10229000039932465AF7AEFB8570218801805AF7C0
:1022A000C4FB002009B0F0BD022900000AFD0000B7
:1022B000160C000082B000F009FAC148416B016BB6
:1022C000090700D400BE254908220A80426B006B32
:1022D000C00600D400BE10200880FFF703F87D2060
:1022E0008000FFF7DDFC67200121FFF743F800289D
:1022F00020D00324641E05D000200146FFF73AF8E1
:102300000028F7D10020164E042813D00190002495
:102310002746072F06D86500FEF7B0FF04462C437A
:102320007F1CF6E70120FEF7FFFF34700198401C88
:10233000761CE9E7FEF7D6FF0948C4788578467829
:102340000078084FB8473046B8472846B847204677
:10235000B84700F0BBF9FCE7488DFC07023000509D
:10236000524BFC072527FC0770B5284EB06800F0DB
:102370004FF80546084C21465CF744FE706107495A
:102380004143481901D0201A80B2306130680821D9
:102390000143316070BDC046710200008FFDFFFF38
:1023A000F8B517480021016064204B490E5A844C4F
:1023B000A769304678432849401828495CF722FE2F
:1023C000054620820F480078022801D00B2400E047
:1023D0001C243C3677432048381820495CF712FE0D
:1023E0002818001900F014F80749401880B25BF76C
:1023F00095F80120C00705490A6882430A60F8BDC4
:10240000A8B9FC07B4BAFC07E204000030000040A1
:1024100080B50246C00B09D06948006A00210B460E
:102420005CF71AFE8905800A401880BD6448006A7E
:102430004243900A80BDC046488DFC0780B5FFF737
:10244000E7FF80BD80B55E498969414302480818AD
:1024500002495CF7D7FD80BD20A1070040420F0074
:1024600010B501468000564A1418606A002800D052
:1024700010BD243409020A31054804221E235AF7EC
:10248000B9FAFF2108310180206010BD488DFC079A
:10249000140E000000F016FD00F020F8FFF70AFF10
:1024A00010B569210C48415C103000228A4204D2E8
:1024B00018C81C600030521CF8E710BD10B5682128
:1024C0000548415C00228A4204D218C81C600030D2
:1024D000521CF8E710BDC046C48BFC07F8B5364E59
:1024E000F08CC005354D1AD535484078012803D108
:1024F00000F0C4FC1B2812D8324C2088C00400D441
:10250000A88AFF201C30304908801B2000F0C0FC46
:10251000E08D01210143E185F08C4007FCD52B487B
:102520002BA118225CF7E8FD2FA032491CC81CC162
:10253000FEF7FDFA3048314901600320070200240C
:102540002F4B0090394622469847042528463946A5
:1025500022462B4B98470126304639462A46284BBF
:102560009847EFF3108086F31088134B19884022A8
:102570000A431A80002802D086F3108801E084F311
:1025800010882048018820498A8980231A438A813B
:102590001E4A0B25158008220A808C808A899A435E
:1025A0008A81009A8A818683048484840349088806
:1025B00030430880F8BDC046040000500C030050B2
:1025C000488DFC0752000050084BFC0720000840D3
:1025D000F99DF00700000000E3A1F10700000000F2
:1025E0004FA4F107000000005D05FC078B08FC0705
:1025F0009B09FC07C000FC07000008400700100012
:102600003911FC077C11005000110050C01100501E
:102610000549884200D000BE04480188044A1140A0
:102620008918091D01807047111111111200005005
:10263000FC7F0000F8B504460026234F302E0FD053
:10264000BD19E88AFD2801D1064969605EF756FE8A
:10265000002803D082682846214690471836EDE7C7
:10266000F8BDC046E440FC07B0B50025164C002874
:1026700015D0012D27D8E08A5EF740FE002802D051
:102680004168204688470020E0816060A060FF200C
:10269000E082207D5AF707FC18346D1CE9E7012D14
:1026A00011D8FF20E082002020606060A060E06020
:1026B000206128461030C0B2A08221465AF799FB0B
:1026C00018346D1CEBE7B0BD308CFC0710B504A0CE
:1026D000084CA04708A0A0470CA0A04710BDC046CA
:1026E0000D0A202D2D2D2D2D2D2D2D2D2D2D2D2D6A
:1026F0002D2D0000C539FC070D0A20493243204426
:102700004131343533585F44535000000D0A202DB9
:102710002D2D2D2D2D2D2D2D2D2D2D2D2D2D0D0A2C
:1027200000000000FEB50446400930273721052887
:10273000384600D3084601912109401802AD28709F
:1027400001262846314601F029F90F2020400A28A9
:1027500000D3019F381828702846314601F01EF931
:10276000FEBD000010B5EB4C082020701120FEF7D4
:102770002BFC0320607010BDFEB562480325057078
:10278000614C20461438016814220A436B218A43A5
:102790000260A06A5D49C8600020C043A062206852
:1027A0003F218843206020685949084020606068C4
:1027B0005849084001210191890202914018606046
:1027C000606840210143302081436160A069524923
:1027D00008400B2149064018A061A0694F490840F4
:1027E00069024018A061A069182101432720814394
:1027F000A161432020714A4880474A4880474A489F
:10280000804740480570009548480668484880471A
:1028100048488047206848490840F1054018206032
:102820003B4E403620683040490C4018206041271C
:10283000277160683749084002994018606038483D
:10284000804738488047384880472E4805703748C9
:102850000568374880473748804720683649084030
:10286000E9054018206020683040490C401820607D
:10287000277160682749084002994018606028481D
:10288000804728488047284880471E4800990170A3
:10289000264800682168284A1140C205891821602D
:1028A00021683140254D0540A80108182060606866
:1028B000019988436060154EF068A06220681C2171
:1028C0000143232081432160206811490840206092
:1028D000A06911490840072189064018A061A06934
:1028E0000E4908400F21C9014018A061A0691E21AE
:1028F000014321208143A1610D4880470D48804755
:102900007585FEBD0510004018300040084BFC07DF
:10291000FF7FFFFFFFF9FFFFFFFFFFC03FF0FFFF5B
:10292000011DFC07C91DFC07AB0FFC0788300040E8
:10293000DD1CFC07970FFC07FFFF7F00FF01000075
:1029400070470000F0B58BB03022002181541F2267
:102950001204384B1D68954301246204AA181A60BA
:10296000364B374D4561374D374E384F384AC26187
:1029700006624362304A8262C562364A076042603C
:10298000E004BD4A136883431360282903D001A8DB
:102990004154491CF9E730480068403001A9282219
:1029A0005CF7AAFB774D6C71FFF7DCFEFFF786FD45
:1029B000FFF776FD00F068F901F00EF800F05CF822
:1029C000FFF7DAFEEC7025480088072101402971E5
:1029D000FEF77EFA224D2889224C6168224E314052
:1029E000081860606889A16831400818A060FEF787
:1029F000F9FF288821683140081820601B480188A9
:102A0000A26932405118A1614088E169314008183B
:102A1000E061688A216A314008182062A88A616AE8
:102A200031400818606296480221817000210180BF
:102A30000BB0F0BD74000040752AFC07712AFC073A
:102A40005D2BFC07412BFC07B514FC07192BFC0779
:102A50001B2BFC074129FC074CB9FC07B8100040B0
:102A60001030004088A0FC070000FFFF64300040E9
:102A700000207047704700000E4908880E4A024047
:102A800001204302D2180A8041057B4A13688B4318
:102A90001360810700224A671F2212044B6F934381
:102AA0004004181848670868E02202431020824357
:102AB0000A60704738300050FFFC000080B51F20CE
:102AC000000401218A07536F834348041818506794
:102AD00010680721884310600D48018808220A43C6
:102AE0000280FFF73FFEFFF7E9FCFFF7D9FC00F09B
:102AF000CBF800F071FFFFF7BFFFFEF773FF6048F0
:102B000002218170002101800520FEF709FA80BDB5
:102B10000800005004100040704780B5E62800D33C
:102B2000E620282800D82820F9214A0042437D20A9
:102B3000C10010465CF766FA7F38C0B280BD000065
:102B40000548016807220A430260012080044A49BF
:102B50000A6882430A60704730000040022902D0B0
:102B6000012900D000BE002802D0FF2804D000BEFA
:102B7000022901D10C207047B1484079002800D0CB
:102B800009207047488DFC07F8B53B480168C90724
:102B900003D0016802220A4302600124016849024D
:102BA00003D5A10502680A43026027026502334982
:102BB0000095084608380668002E5BD0300606D51A
:102BC000802008604AF763FEFEF722FF2B49B0071A
:102BD00004D50220086046F758FD2849300711D572
:102BE00008200860FDF766FF3D4627460024204682
:102BF00046F704FD21490220214A907014803C468A
:102C00002F46009D3E4204D00F60012046F7F6FC9F
:102C10001A492E4203D00D604AF7A2FE17497006EA
:102C200004D54020086046F7E4FC1449F00604D5BA
:102C30001020086045F7A0F8104970070CD5042053
:102C4000086010490888A04308805AF73DFC3FF708
:102C5000F7FCFEF7DDFE0949F00705D00C605AF7D6
:102C60004FFC4AF714FE0549B006A2D520200860A3
:102C700000BE9EE7F8BDC0460002004018000040BC
:102C80000410004008330050FCB57F2000025A4A6F
:102C9000516981430B20000208185061106880B20E
:102CA0005649401810609069554C04400123580360
:102CB000009020189061032001900002146B0443DF
:102CC0001463908F10240443948790881843908055
:102CD0004C484D4A02604D4A104610384C4CA58B6A
:102CE000054015204301E8185030A0836069494D24
:102CF0000540494828186061A069484D05400920F1
:102D000040022818A0612068454D05404548281814
:102D100020606068444D0540444828186060A06801
:102D2000434D054043482818A060E068424D0540E7
:102D300042482818E06042484079002802D1C1206A
:102D4000400100E03F48404D2860052080023F4F91
:102D50003880401DB880388C55260643AA2086430B
:102D60003E84FF266C363046C930388538490846DF
:102D70000E30B88537483886B986C01D3887364842
:102D80002085A06B3549014035480818A063354CB3
:102D90002680208F10401F462037C01920873248D8
:102DA000018811408919D531018081881140C918E5
:102DB000818001891140C91901812136A6802B48E3
:102DC00001881140C91860310180818A19220A43A3
:102DD00006218A438282A88F25490140009808185D
:102DE000A88724480168019A114304229143016095
:102DF00021486866FCBDC04620300040000088883D
:102E0000FF00FEFF8000004059055C071FFCFFFF2C
:102E1000042000400000E0FF09581A00FEE1FFFF17
:102E2000E0E000000809294900000303696A686CB2
:102E3000031FFFFF70600000E0E0E0E00B0A0A08FB
:102E4000488DFC072018000900100040281300409E
:102E5000260A000051080000070F00002F64E0FE62
:102E6000101A06010012004044120040881200406F
:102E7000FF9F000080100040500150010E48018863
:102E8000890918220A4000888004400F8018704782
:102E900010B51F21490282010A4007490B88074CDF
:102EA0001C4014430C800A88054B13404007800CDB
:102EB0001818088010BDC04654000050FFF90000EB
:102EC000FFC70000F0B595B0F34808230380002049
:102ED00008901290F14E1298002812DC00201490F5
:102EE000149A12990B2A09DC30224A43B118149A19
:102EF000920088501499491C1491F1E7481C1290D3
:102F0000E9E70693F3680898C1430120002B0246C5
:102F100000D00A46D400F44D2F6B27436C6B2F630F
:102F20001092570F002B0A4600D11A46D200D21930
:102F300022436A633469002C034600D00B461F0FFE
:102F4000002C0A4600D122461201D2196C6B1443A0
:102F50002A6B6C631C0114432C637468002C00D032
:102F60000846C70F002C00D121464900C9196A6BD9
:102F70000A43296B6A6342000A432A63089969631A
:102F80002963109AF26033617060129112980028E0
:102F900035DC0020149014980B282CDC149812991E
:102FA0000B2828D83020129941437118149A9200A6
:102FB0008958491C00D100BE129941437118149AD6
:102FC00092008958002913D0129948433018149957
:102FD00089004058C117149A5CF7D2F8129A12016E
:102FE0005CF7CEF86A6B0A43296B6A630143296375
:102FF0001498401CCEE71298401C1290C6E7BB4FB5
:10300000388811AC20802088C046C0462088042122
:103010000F91C943084202D00898388003E0B8896C
:1030200001218843B881069BB88BB1490140072034
:103030000C90C0020818B883AE4E30881843308018
:10304000F08D06229043F0850124A003B98B014343
:10305000B9833088A84901403180708802921043BA
:1030600098437080052010903B460707798DA34A4E
:10307000FF32F08D104022020A920F220D921203AD
:10308000C90503921CD57D21C90018310843F0857C
:10309000F08D9B490140E0030818F085988B069954
:1030A00008439883988B0F9988439883F08DA043A9
:1030B000F085988B402188431A46988323461AE06E
:1030C000032149020843F085F08D1043F085988B69
:1030D000069988439883988B042188431A469883DD
:1030E0007088884901407180F08D2043F085234627
:1030F000788D4007FCD51446908B03210E91084330
:10310000908331882022114340200790C043014022
:103110003180218C114301402184F98A8022099257
:1031200011430140F982398EFF2291433986398F4C
:103130000F9C21431822019291433987398FA02295
:103140000A4302403A8770480480B8886F490140BA
:10315000B98018046E490860EFF3108483F3108877
:10316000788D0A9908420B9308D06B70FFF786FEA2
:103170000B9B68490870F08D184048703888099991
:1031800008433880644A10680C99884311461060DF
:10319000089E48684007FCD53888000600D400BE69
:1031A0005E4808615E484861002C02D083F31088B5
:1031B00002E0002080F3108808680C99084012A9EA
:1031C00008700878022820D0788D0A99084211D01A
:1031D000FFF754FE0A2802D80B20FFF759FE454A94
:1031E000D08DC0070B9905D1D08D0843D085788D3F
:1031F0004007FCD5484A10680221014310988143DA
:103200001160114648684007FCD546480068C1B2C5
:103210000C20AA29014600D00F993A8882438818C9
:103220003880C046C0464048006840490988682444
:103230003F4A1653A985A8620B98C046C0463D4B2D
:10324000181F00683C49884200D04AE105940D9857
:1032500004070420002104910D9406461918081F44
:103260001A46EC32904200D340E100681490149B5F
:10327000234009200407149AA34273D1149B1C0A0B
:10328000E3B20F93D2B2921F112A00D9F5E0920057
:1032900003A39A58274B974600330050188DFC071C
:1032A0003D33FC07E933FC077D34FC077D34FC0724
:1032B0007D34FC077D34FC077D34FC077D34FC073E
:1032C0007D34FC077D34FC077D34FC071334FC0798
:1032D0003934FC075F34FC078934FC077D34FC0774
:1032E0009334FC079B34FC07488DFC070403005013
:1032F000FFC3000052000050FFBF000000F0FFFFBE
:10330000FF0F0000FFF9000000020050FFF700006F
:1033100080E200E0084BFC070000F4070F00990969
:10332000090404A4D07FF807D47FF807D87FF807F2
:10333000C48BFC07D47EF807A5A5A5A5B24A0598BD
:10334000105CC00010180F9A92005BF7D5FE05992B
:10335000AD4A505C00195054C0B2052800D28CE030
:1033600000BE8AE0900F10D01498A84988420CD86B
:103370003046083039462831149A8A4228D1A44B65
:10338000F158A44A11800D9C67E714980D9C2040C9
:103390000C990907884203D10020C046C04605E0C9
:1033A000149820400B99C907884202D1301D984BD0
:1033B00053E714982040109949078842944B05D050
:1033C000149820400E994907884279D1301D44E76E
:1033D000B91C149A8A4268D18D4C315966228A4BA5
:1033E000995223460D9C38E769220092864B985CDF
:1033F000C000181810300F9A92005BF77DFE0099FC
:10340000814A505C00195054C0B20D2835D300BE1B
:1034100033E0F1584843F258120C801A00B2C00849
:10342000794B4033D88288B2101A81087A4A114009
:103430000818401C988220E0F1584843F258120CBA
:10344000801A00B2C008704B4033588388B2101AFB
:103450008108714A11400818401C18830DE0049C33
:10346000A00012AA10180F9A92005BF745FE0F9861
:103470000419032C049400D300BE654B0F98800000
:103480003018001D0D9CE8E6F05862215E4A50524B
:10349000F4E7F0585C490865F0E7F05864215A4AAF
:1034A00050520004EAD100BEE8E739462431149AAC
:1034B0008A42574B0AD1F158564A51800D9CCCE6AE
:1034C0001498401C12D000BE3046C6E63946203162
:1034D000149A8A420D9C00D0BFE6F1584D4A918063
:1034E000BBE66620EF490B5A0B9A3AE0ED4C2046BA
:1034F0004030129981830921139A5143130CC91A40
:1035000009B2C908018491B2591A8A08E64B1A40D7
:103510005118491CC183059AA05CC10701D000BEA7
:10352000A05C4008A0546920215CCA07089E0B9A41
:1035300001D000BE215C490821546420215A002991
:1035400002D17D21C90021526620235A002B08D1C7
:10355000D3490968C9B2AA29099B00D06E23D14971
:103560000B520F93EB81B88C9043B8840D20144616
:10357000FDF72AFD788920430221884378817889E4
:103580004006FCD50F9878807D20C000FDF71CFD1B
:1035900078890E998843788178890006FCD5C048DF
:1035A0008069BB498860EFF310840B9A82F310881E
:1035B0003888099908433880B64B18680C998843B5
:1035C0001946186048684007FCD5B3480861B348FD
:1035D00048613888099988433880788D0A9908426B
:1035E0000DD06E70AA480078FFF752FC0B9AA848DD
:1035F0004078002803D1A549C88D9043C885002C88
:103600000CD082F310880CE0C48BFC074C420050B5
:10361000D47EF807A000FC07FF3F0000002080F3E5
:103620001088A2480068A249884200D0C0E0A348A0
:10363000A3495BF77AFD0C9E3102A2485BF775FD4A
:10364000FDF77CFAA048A1490160A148A1493022B8
:1036500008925BF751FDA0480024C4718471447145
:103660000471C470847044703F210D9101709B48B7
:103670009BA1079A5BF740FDA9480470A948AA4995
:103680000160AA48AA490160AA48AB490160AB4859
:103690000A210170AA480F940470AA4832210170CF
:1036A000A94810990160A9480B9C0460A8480160D2
:1036B000A84802990160A8480660A848069E0660CE
:1036C0000A98801DA6490860A6490860A6487B495B
:1036D0000160FEF703FF2346388908998843388143
:1036E0003889099908433881388930433881388CC2
:1036F000A04338847889019988437881388907996B
:1037000008433881388A042188433882B88A800780
:10371000FCD50399FF31F88C08400B211091090268
:103720000143F984F88C1843F884788930431021D8
:1037300088437881788C98437884388907998843BE
:1037400038819E0730680A9CA04330600D98410282
:10375000864802688A435903511801605905026876
:103760000A43026051490968514A91423DD00D9681
:103770007D4909688160464A90689070010E5171D8
:10378000010C1171000AD0702046C0304A490A4627
:10379000002818D0401E435C167837460E9C274000
:1037A0003B4CE719BF785F4077401770521CEFE73A
:1037B00040484149109A5202964200D937E73258A0
:1037C0007250361DF6E7324810303B491C22044641
:1037D0005DF726FC002800D000BE20465DF7B4FB54
:1037E0003248334901600A9C0D9E5F4800683EF7ED
:1037F00031FD5F4F21460F9C3C71FC7030680843DF
:103800003060FEF705F9287801281AD15948018857
:103810004907FCD42C70C188808809040C181F202B
:103820004006492122460F9B5FF71AFE642141435F
:10383000080CA861504860430F9C800B401C400856
:1038400028624420109A2A54FC704C4E3470AC63A9
:10385000EC632C642846453049495BF74DFC443500
:103860006C84254604244749204659F7C2FA20466D
:10387000294659F7F0FA5FF73BFFFD703570FEF708
:103880008FFD0520FDF74CFB15B0F0BD5200005038
:10389000084BFC070000F4070F009909090404A471
:1038A000D07FF807C48BFC07FF3F00009CB8FC07E3
:1038B0006587341200B0FC07008EFC0700A0FC07EF
:1038C000AC14000000B9FC0760BAFC076C41FC07AF
:1038D00000BAFC077CFCF107DAB9FC07B0BCFC07B6
:1038E0002000800000C000000000840000002822AA
:1038F000000000000000040000F7FFFF7F00000050
:1039000030F0FF0F00000000000400000000000085
:1039100000000000000000000000000000000000A7
:10392000FDB9FC0750B9FC07603FF20754B9FC072A
:10393000F042FC0758B9FC07E441FC07B0B9FC07AA
:10394000B1B9FC07D9B9FC075CB9FC0760B9FC0741
:1039500064B9FC0768B9FC076CB9FC0770B9FC07CF
:1039600048B9FC0744B9FC074CB9FC070002004009
:1039700054BAFC070016005011110100B4BAFC073C
:103980003445FC07D43BFC07704770470248018868
:1039900001229143018070470411005010B5314A53
:1039A000118100239381064A0B0407D00378948A7F
:1039B000A406FCD51380491E401CF5E710BDC04687
:1039C0000011005010B50446FDF70EFB81B22046F1
:1039D000FFF7E4FF10BD000018B50848016800912A
:1039E0000099074A009B1A40FF2424040C40D9B2D6
:1039F0000919044BC9181143016018BD800000402B
:103A000000FF00FF0A000A00B0B50C4606498842D4
:103A100009D1481C022519462B4658F7EBFFA1880F
:103A2000018059F702F8B0BD0D0C000070B50446D6
:103A30000C2060430B4908183A21405CFF280ED047
:103A40000025094E1C206843315CFF2909D030183D
:103A50000169002901D0204688476D1CF2E7FDF777
:103A600053FE70BD488DFC07283DFC0780B5FDF76F
:103A70004BFE80BD02E008C8121F08C1002AFAD11F
:103A800070477047002001E001C1121F002AFBD1DE
:103A9000704700001A4988880722904388800520D3
:103AA00000078A89D2070DD0098800290AD1154953
:103AB0000A8802854A88828489880184418A124A58
:103AC0000A404282114906220A800121CA03104B92
:103AD0001A60BFF34F8FBFF36F8F02221A60BFF3DC
:103AE0004F8FBFF36F8F1960BFF34F8FBFF36F8F8F
:103AF00041890422914341810021018062B67047CF
:103B000004030050A000FC077FFE000000340050BA
:103B100080E100E017B967984C664C01963331B1EB
:103B2000915900152368EC521E6244749A1BD18B84
:103B3000AB75B66E9EE7BA08B9A948ABA1AC031C39
:103B40002E0D296C20EE8D0CE1F04A0CB325DC53D0
:103B50006A68862D28D5E1C1E1C54729B55765C3F7
:103B6000BA47159E4F43313C939242E6A876FA3B02
:103B7000EFB4875A8C09E0D1815442408E4FD2B3C2
:103B800077E32A7720EE8D0CE1F04A0CB325DC5365
:103B90006A68862C4F43313C939242E6A876FA3B02
:103BA000EFB4875917B967984C664C01963331B119
:103BB000915900142368EC521E6244749A1BD18BF5
:103BC000AB75B66D28D5E1C1E1C54729B55765C3C9
:103BD000BA47159D00000000583FF207688CFC07AB
:103BE0000400010002140000111DFC07010D00007B
:103BF0003521FC07000D0000ED20FC07000E000041
:103C0000651FFC07010E0000891FFC07030E000062
:103C1000FD1FFC070A0E00004120FC070C0E0000EF
:103C20008531F2071C0D0000C731F207100D0000AE
:103C30008530F2070F0E0000F931F2072C0E00005C
:103C40003932F207120C00005332F207080E00005E
:103C50006F32F2071B0E00009F30F207C517FC07FA
:103C60003D18FC07E517FC071D18FC079116FC071B
:103C7000DD15FC07F8000000130E0000FD1EFC0718
:103C8000150E0000091EFC07170E00003D20FC0762
:103C9000190E00002520FC07150D0000E920FC0787
:103CA000210D00006521FC07220D00006121FC07A9
:103CB000080004900000000000000000030005D090
:103CC0008B0035F010005CF0000010B0000018B060
:103CD00000001AB0030051F0000038B000003AB004
:103CE000000064B0000066B0000022B0000024B004
:103CF000010005D0000000000A00008008030490C5
:103D0000000004F0030006D0000000000A0000805C
:103D100008030490000004F0030006D00000000037
:103D20000328002802290129FD000000603DFC074E
:103D30002D000000A915FC07000000000000000095
:103D400000000000FF000000000000000000000074
:103D50000000000000000000000000000000000063
:103D6000223DFC07100000000100000010001000C0
:103D70003941FC07203DFC07020000000100000063
:103D80000000000000000000443BFC0710000000A1
:103D9000080002000100000000000000263DFC07B2
:103DA00002000000010000000D000D002445FC078A
:103DB000203DFC07020000000100000000000000A0
:103DC00000000000643BFC071000000008800000B9
:103DD0000180000000000000263DFC0702000000FA
:103DE00001000000090009000245FC07203DFC0716
:103DF00002000000010000000000000000000000C0
:103E0000143BFC071000000001020000020000004B
:103E100000000000243DFC07020000000900020031
:103E20000200000000000000263DFC070200000028
:103E3000010000000B000B00B644FC07203DFC070E
:103E4000020000000100000000000000000000006F
:103E5000243BFC07100000000100000002000000ED
:103E600000000000263DFC070200000001000000E9
:103E70000B000B00CA44FC07203DFC0702000000B9
:103E8000010000000000000000000000343BFC07BF
:103E9000100000000102000001000000000000000E
:103EA000243DFC070200000009000200020000009F
:103EB00000000000263DFC07020000000100000099
:103EC0000C000C000C45FC07203DFC070200000024
:103ED000010000000000000000000000543BFC074F
:103EE000100000004100000014000000000000006D
:103EF000243DFC070200000009000200020000004F
:103F000000000000263DFC07020000000100000048
:103F10000C000C00E444FC07203DFC0702000000FC
:103F2000010000000000000000000000743BFC07DE
:103F30001000000009020200320000000000000032
:103F4000243DFC07020000000900020002000000FE
:103F500000000000263DFC070200000001000000F8
:103F60000A000A001945FC07223DFC07100000006A
:103F700001000000100010004941FC07203DFC0733
:103F8000020000000100000000000000000000002E
:103F9000843BFC07100000000800020001800000C4
:103FA00000000000263DFC070200000001000000A8
:103FB00008000800F944FC07203DFC07020000004F
:103FC000010000000000000000000000943BFC071E
:103FD0001000000008800000010000000000000048
:103FE000263DFC0702000000010000001100110046
:103FF0009344FC07223DFC07100000000100000074
:10400000100010005941FC07203DFC070200000091
:10401000010000000000000000000000A43BFC07BD
:10402000100000000102000002000000000000007B
:10403000243DFC070200000009000200020000000D
:1040400000000000263DFC07020000000100000007
:1040500010001000A544FC07203DFC0702000000F2
:10406000010000000000000000000000B43BFC075D
:10407000100000000100000002000000000000002D
:10408000263DFC07020000000100000007000700B9
:10409000F144FC07203DFC07020000000100000085
:1040A0000000000000000000C43BFC0710000000FE
:1040B000410000000200000000000000243DFC0759
:1040C00002000000090002000200000000000000E1
:1040D000263DFC0702000000010000001200120053
:1040E0008044FC07EC40FC0709000000130C0000B2
:1040F0004B29F207150C00006921FC07170C000082
:10410000572BF207000C00002328F20706FD0000E1
:104110005728F20703FD00003728F20708FD0000CA
:10412000B328F2070EFD00000F29F20705FD00007D
:10413000391AFC07001A212D03595A08E4862A9ED1
:104140008FE911BC7C98434218595A08E4862A9E8C
:104150008FE911BC7C7C464218595A08E4862A9E95
:1041600008E911BC7CD047421800000001000001A2
:10417000050AFC0701000002F50AFC070000000028
:1041800000000000F4011700F4352348D007064072
:1041900064320000140000005916FC070000000003
:1041A000FF000000000000000000000014000000FC
:1041B000ED14F207FD0000002126F207FF000000C9
:1041C00000000000B116FC07F915FC074045FC078C
:1041D000093AFC075C3CFC07808DFC079C8CFC07C3
:1041E000698CFC07050000006052FC070004000019
:1041F0000C92FC07AC020000008EFC0700040000DB
:10420000C494FC07700500002003000000A60E0007
:1042100004000000D2000000320000003C0000005A
:104220000100000001000000020000000200000088
:104230000400000003000000060000000000000071
:10424000020000000200000000000000000000006A
:10425000030000000300000005000000050000004E
:10426000060000000A0000000A000000C80000006C
:10427000B80B000002000000B80B0000B80B0000F3
:1042800010000000D4010000CC010000700200000A
:104290006A0000000400000001000000200000008F
:1042A0000A00000001000000E20400008A02000091
:1042B000DC050000AF0000006C44FC07D042FC07A6
:1042C000E042FC077444FC07C441FC070000000006
:1042D000A8B8FC07A0B8FC07B8B8FC07F8B8FC07FA
:1042E0003441FC073841FC07603DFC07B11AFC076C
:1042F0004529FC07BD2AFC0793DEF007F1DEF00735
:10430000F9DEF00749DFF00761DFF00777DFF0073C
:1043100099DFF00719E3F007BDE5F007FDE3F007CB
:104320001DE4F0073DE4F0077BE4F0078BE4F007C1
:10433000F5F9F007B1F7F007CFF7F007EBF7F00763
:1043400005F8F00719F8F00797F8F007AFF8F0074D
:10435000DFCDF10767D0F107DBB9F007CD0DF2072C
:10436000B10EF207AD0EF207A90EF2078D21F0078C
:104370001126FC076923FC07A123FC074524FC0741
:104380003D24FC07B57EF007837DF0077501FC072F
:10439000599EF107634CF1076926FC07D110F2071B
:1043A0003526FC07B111F2074112F2077912F20724
:1043B00000000000C11AFC07C31AFC07B9C6F007C9
:1043C000D592F1070302FC075F9DF1075F9CF1079F
:1043D0001505FC07EB72F107B922F1076B04F10731
:1043E000351AFC072BA4F007F1D2F0075FBDF007E8
:1043F000D5BDF00785BEF007DB2DF007752EF00761
:104400001581F007DF7FF0070937F0070000000093
:10441000B91CFC07C11CFC07A119FC07F3C3F10779
:1044200075C4F10703C5F107B919FC0700000000C6
:10443000000000000000000000000000000000007C
:10444000000000000000000000000000000000006C
:10445000000000000000000000000000000000005C
:104460000000000000000000000000008441FC0784
:10447000708DFC07AC41FC07308CFC07020000008B
:1044800052656164206D652028696E64696361749A
:104490006529005772697465206D6520286E6F204C
:1044A000727370290052656164206D6520286E6FFB
:1044B0007469667929004144432056616C75652012
:1044C0003100444131343533310041444320566199
:1044D0006C7565203200765F362E302E32302E31EC
:1044E00033333800496E64696361746561626C6579
:1044F0000052656164206D65005772697465206DB6
:1045000065004C45442053746174650042757474B1
:104510006F6E205374617465004C6F6E6720566136
:104520006C756500436F6E74726F6C20506F696EAE
:10453000740000004449414C4F472D544D504C00ED
:104540002D3AFC076D3AFC07000000000000000057
:10455000F91BFC0700000000000000000000000044
:10456000F11AFC070000000000000000000000003D
:10457000051BFC07F91AFC07191BFC07091CFC07A3
:1045800000000000951CFC07C51AFC070000000095
:1045900000000000B11BFC07451CFC0700000000E8
:1045A000000000002D1BFC070000000000000000C0
:1045B00000000000000000000000000000000000FB
:1045C00000000000000000000000000003000010D8
:1045D00000010000F845FC07F845FC07680C0000E6
:1045E000843AFC07C08BFC07C08BFC07400200002C
:0845F000843AFC070E000000F4
:0400000507FC0111E2
:00000001FF
